{
  "contractName": "ContributionContract",
  "abi": [
    {
      "inputs": [
        {
          "internalType": "address",
          "name": "owner",
          "type": "address"
        }
      ],
      "stateMutability": "nonpayable",
      "type": "constructor"
    },
    {
      "anonymous": false,
      "inputs": [
        {
          "indexed": false,
          "internalType": "uint256",
          "name": "contributionId",
          "type": "uint256"
        },
        {
          "indexed": false,
          "internalType": "uint256[]",
          "name": "tracks",
          "type": "uint256[]"
        },
        {
          "indexed": false,
          "internalType": "string",
          "name": "title",
          "type": "string"
        },
        {
          "indexed": false,
          "internalType": "uint256",
          "name": "createdAt",
          "type": "uint256"
        },
        {
          "indexed": false,
          "internalType": "string",
          "name": "previewFile",
          "type": "string"
        },
        {
          "indexed": false,
          "internalType": "string",
          "name": "previewFileHash",
          "type": "string"
        },
        {
          "indexed": false,
          "internalType": "uint256",
          "name": "recordId",
          "type": "uint256"
        },
        {
          "indexed": false,
          "internalType": "bool",
          "name": "seedContribution",
          "type": "bool"
        },
        {
          "indexed": false,
          "internalType": "bool",
          "name": "roughMix",
          "type": "bool"
        },
        {
          "indexed": false,
          "internalType": "uint256",
          "name": "status",
          "type": "uint256"
        },
        {
          "indexed": false,
          "internalType": "string",
          "name": "description",
          "type": "string"
        }
      ],
      "name": "ContributionCreated",
      "type": "event"
    },
    {
      "anonymous": false,
      "inputs": [
        {
          "indexed": false,
          "internalType": "uint8",
          "name": "version",
          "type": "uint8"
        }
      ],
      "name": "Initialized",
      "type": "event"
    },
    {
      "inputs": [],
      "name": "ACCEPTED",
      "outputs": [
        {
          "internalType": "uint256",
          "name": "",
          "type": "uint256"
        }
      ],
      "stateMutability": "view",
      "type": "function",
      "constant": true
    },
    {
      "inputs": [],
      "name": "CONTRIBUTION_VOTING_CONTRACT_ADDRESS",
      "outputs": [
        {
          "internalType": "address",
          "name": "",
          "type": "address"
        }
      ],
      "stateMutability": "view",
      "type": "function",
      "constant": true
    },
    {
      "inputs": [],
      "name": "CONTROLLER_CONTRACT_ADDRESS",
      "outputs": [
        {
          "internalType": "address",
          "name": "",
          "type": "address"
        }
      ],
      "stateMutability": "view",
      "type": "function",
      "constant": true
    },
    {
      "inputs": [],
      "name": "OWNER",
      "outputs": [
        {
          "internalType": "address",
          "name": "",
          "type": "address"
        }
      ],
      "stateMutability": "view",
      "type": "function",
      "constant": true
    },
    {
      "inputs": [],
      "name": "PENDING",
      "outputs": [
        {
          "internalType": "uint256",
          "name": "",
          "type": "uint256"
        }
      ],
      "stateMutability": "view",
      "type": "function",
      "constant": true
    },
    {
      "inputs": [],
      "name": "RECORD_CONTRACT_ADDRESS",
      "outputs": [
        {
          "internalType": "address",
          "name": "",
          "type": "address"
        }
      ],
      "stateMutability": "view",
      "type": "function",
      "constant": true
    },
    {
      "inputs": [],
      "name": "REJECTED",
      "outputs": [
        {
          "internalType": "uint256",
          "name": "",
          "type": "uint256"
        }
      ],
      "stateMutability": "view",
      "type": "function",
      "constant": true
    },
    {
      "inputs": [],
      "name": "TRACKS_CONTRACT_ADDRESS",
      "outputs": [
        {
          "internalType": "address",
          "name": "",
          "type": "address"
        }
      ],
      "stateMutability": "view",
      "type": "function",
      "constant": true
    },
    {
      "inputs": [
        {
          "internalType": "uint256",
          "name": "",
          "type": "uint256"
        }
      ],
      "name": "contributionData",
      "outputs": [
        {
          "internalType": "string",
          "name": "title",
          "type": "string"
        },
        {
          "internalType": "uint256",
          "name": "createdAt",
          "type": "uint256"
        },
        {
          "internalType": "string",
          "name": "previewFile",
          "type": "string"
        },
        {
          "internalType": "string",
          "name": "previewFileHash",
          "type": "string"
        },
        {
          "internalType": "bool",
          "name": "seedContribution",
          "type": "bool"
        },
        {
          "internalType": "bool",
          "name": "roughMix",
          "type": "bool"
        },
        {
          "internalType": "uint256",
          "name": "status",
          "type": "uint256"
        },
        {
          "internalType": "string",
          "name": "description",
          "type": "string"
        },
        {
          "internalType": "address",
          "name": "owner",
          "type": "address"
        },
        {
          "internalType": "bool",
          "name": "isPresent",
          "type": "bool"
        }
      ],
      "stateMutability": "view",
      "type": "function",
      "constant": true
    },
    {
      "inputs": [],
      "name": "recordsContract",
      "outputs": [
        {
          "internalType": "contract IRecords",
          "name": "",
          "type": "address"
        }
      ],
      "stateMutability": "view",
      "type": "function",
      "constant": true
    },
    {
      "inputs": [],
      "name": "trackInterface",
      "outputs": [
        {
          "internalType": "contract ITracks",
          "name": "",
          "type": "address"
        }
      ],
      "stateMutability": "view",
      "type": "function",
      "constant": true
    },
    {
      "inputs": [
        {
          "internalType": "address",
          "name": "newVotingContractAddress",
          "type": "address"
        },
        {
          "internalType": "address",
          "name": "newRecordsContractAddress",
          "type": "address"
        },
        {
          "internalType": "address",
          "name": "newTracksContractAddress",
          "type": "address"
        },
        {
          "internalType": "address",
          "name": "controllerContractAddress",
          "type": "address"
        }
      ],
      "name": "initialize",
      "outputs": [],
      "stateMutability": "nonpayable",
      "type": "function"
    },
    {
      "inputs": [
        {
          "internalType": "address",
          "name": "ownerAddress",
          "type": "address"
        }
      ],
      "name": "setOwnerAddress",
      "outputs": [],
      "stateMutability": "nonpayable",
      "type": "function"
    },
    {
      "inputs": [
        {
          "internalType": "uint256",
          "name": "contributionId",
          "type": "uint256"
        }
      ],
      "name": "getContributionData",
      "outputs": [
        {
          "components": [
            {
              "internalType": "uint256[]",
              "name": "tracks",
              "type": "uint256[]"
            },
            {
              "internalType": "string",
              "name": "title",
              "type": "string"
            },
            {
              "internalType": "uint256",
              "name": "createdAt",
              "type": "uint256"
            },
            {
              "internalType": "string",
              "name": "previewFile",
              "type": "string"
            },
            {
              "internalType": "string",
              "name": "previewFileHash",
              "type": "string"
            },
            {
              "internalType": "bool",
              "name": "seedContribution",
              "type": "bool"
            },
            {
              "internalType": "bool",
              "name": "roughMix",
              "type": "bool"
            },
            {
              "internalType": "uint256",
              "name": "status",
              "type": "uint256"
            },
            {
              "internalType": "string",
              "name": "description",
              "type": "string"
            },
            {
              "internalType": "address",
              "name": "owner",
              "type": "address"
            },
            {
              "internalType": "bool",
              "name": "isPresent",
              "type": "bool"
            }
          ],
          "internalType": "struct ContributionContract.Contribution",
          "name": "contribution",
          "type": "tuple"
        }
      ],
      "stateMutability": "view",
      "type": "function",
      "constant": true
    },
    {
      "inputs": [
        {
          "components": [
            {
              "internalType": "uint256[]",
              "name": "tracks",
              "type": "uint256[]"
            },
            {
              "internalType": "string",
              "name": "title",
              "type": "string"
            },
            {
              "internalType": "string",
              "name": "previewFile",
              "type": "string"
            },
            {
              "internalType": "string",
              "name": "previewFileHash",
              "type": "string"
            },
            {
              "internalType": "uint256",
              "name": "recordId",
              "type": "uint256"
            },
            {
              "internalType": "bool",
              "name": "roughMix",
              "type": "bool"
            },
            {
              "internalType": "string",
              "name": "description",
              "type": "string"
            },
            {
              "internalType": "uint256",
              "name": "communityReward",
              "type": "uint256"
            },
            {
              "internalType": "uint256",
              "name": "governanceReward",
              "type": "uint256"
            }
          ],
          "internalType": "struct ContributionContract.NewContributionPayload",
          "name": "payload",
          "type": "tuple"
        },
        {
          "internalType": "address payable",
          "name": "platformWallet",
          "type": "address"
        },
        {
          "internalType": "uint256",
          "name": "platformFee",
          "type": "uint256"
        }
      ],
      "name": "createNewContribution",
      "outputs": [
        {
          "internalType": "uint256",
          "name": "",
          "type": "uint256"
        }
      ],
      "stateMutability": "payable",
      "type": "function",
      "payable": true
    },
    {
      "inputs": [
        {
          "components": [
            {
              "internalType": "uint256[]",
              "name": "tracks",
              "type": "uint256[]"
            },
            {
              "internalType": "string",
              "name": "title",
              "type": "string"
            },
            {
              "internalType": "string",
              "name": "previewFile",
              "type": "string"
            },
            {
              "internalType": "string",
              "name": "previewFileHash",
              "type": "string"
            },
            {
              "internalType": "uint256",
              "name": "recordId",
              "type": "uint256"
            },
            {
              "internalType": "bool",
              "name": "roughMix",
              "type": "bool"
            },
            {
              "internalType": "string",
              "name": "description",
              "type": "string"
            },
            {
              "internalType": "uint256",
              "name": "communityReward",
              "type": "uint256"
            },
            {
              "internalType": "uint256",
              "name": "governanceReward",
              "type": "uint256"
            }
          ],
          "internalType": "struct ContributionContract.NewContributionPayload",
          "name": "payload",
          "type": "tuple"
        },
        {
          "internalType": "address",
          "name": "owner",
          "type": "address"
        }
      ],
      "name": "controllerCreateNewContribution",
      "outputs": [
        {
          "internalType": "uint256",
          "name": "",
          "type": "uint256"
        }
      ],
      "stateMutability": "payable",
      "type": "function",
      "payable": true
    },
    {
      "inputs": [
        {
          "components": [
            {
              "internalType": "uint256[]",
              "name": "tracks",
              "type": "uint256[]"
            },
            {
              "internalType": "string",
              "name": "title",
              "type": "string"
            },
            {
              "internalType": "string",
              "name": "previewFile",
              "type": "string"
            },
            {
              "internalType": "string",
              "name": "previewFileHash",
              "type": "string"
            },
            {
              "internalType": "string",
              "name": "description",
              "type": "string"
            }
          ],
          "internalType": "struct ContributionContract.SeedContributionPayload",
          "name": "payload",
          "type": "tuple"
        },
        {
          "internalType": "address payable",
          "name": "platformWallet",
          "type": "address"
        },
        {
          "internalType": "uint256",
          "name": "platformFee",
          "type": "uint256"
        }
      ],
      "name": "createSeedContribution",
      "outputs": [
        {
          "internalType": "uint256",
          "name": "",
          "type": "uint256"
        }
      ],
      "stateMutability": "payable",
      "type": "function",
      "payable": true
    },
    {
      "inputs": [
        {
          "components": [
            {
              "internalType": "uint256[]",
              "name": "tracks",
              "type": "uint256[]"
            },
            {
              "internalType": "string",
              "name": "title",
              "type": "string"
            },
            {
              "internalType": "string",
              "name": "previewFile",
              "type": "string"
            },
            {
              "internalType": "string",
              "name": "previewFileHash",
              "type": "string"
            },
            {
              "internalType": "string",
              "name": "description",
              "type": "string"
            }
          ],
          "internalType": "struct ContributionContract.SeedContributionPayload",
          "name": "payload",
          "type": "tuple"
        },
        {
          "internalType": "address",
          "name": "owner",
          "type": "address"
        }
      ],
      "name": "controllerCreateSeedContribution",
      "outputs": [
        {
          "internalType": "uint256",
          "name": "",
          "type": "uint256"
        }
      ],
      "stateMutability": "nonpayable",
      "type": "function"
    }
  ],
  "bytecode": "0x60806040526001600b556002600c556003600d5534801561001f57600080fd5b50604051620022f9380380620022f983398101604081905261004091610065565b600280546001600160a01b0319166001600160a01b0392909216919091179055610095565b60006020828403121561007757600080fd5b81516001600160a01b038116811461008e57600080fd5b9392505050565b61225480620000a56000396000f3fe6080604052600436106101295760003560e01c80634eb45e62116100a5578063cb7390b711610074578063f0fda38611610059578063f0fda3861461036b578063f8c8765e14610398578063fc0d561e146103b857600080fd5b8063cb7390b714610328578063ec9a2c251461033e57600080fd5b80634eb45e62146102a857806357bded7f146102bb5780639b6a6f0d146102ce578063af670769146102fb57600080fd5b80632609e5f4116100fc578063419f782d116100e1578063419f782d1461025f5780634324efd71461027f57806348de5a7c1461029557600080fd5b80632609e5f414610219578063331a6bf51461023d57600080fd5b80630ade4dbd1461012e578063117803e31461016d57806319358160146101bf57806323374b9d146101ec575b600080fd5b34801561013a57600080fd5b5061014e610149366004611866565b6103e5565b6040516101649a999897969594939291906118ea565b60405180910390f35b34801561017957600080fd5b5060025461019a9073ffffffffffffffffffffffffffffffffffffffff1681565b60405173ffffffffffffffffffffffffffffffffffffffff9091168152602001610164565b3480156101cb57600080fd5b5060075461019a9073ffffffffffffffffffffffffffffffffffffffff1681565b3480156101f857600080fd5b5061020c610207366004611866565b61068a565b60405161016491906119c8565b34801561022557600080fd5b5061022f600b5481565b604051908152602001610164565b34801561024957600080fd5b5061025d610258366004611b1e565b610a38565b005b34801561026b57600080fd5b5061022f61027a366004611df2565b610b2b565b34801561028b57600080fd5b5061022f600c5481565b61022f6102a3366004611e44565b610c07565b61022f6102b6366004611fcc565b610e10565b61022f6102c9366004612002565b610ec5565b3480156102da57600080fd5b5060095461019a9073ffffffffffffffffffffffffffffffffffffffff1681565b34801561030757600080fd5b5060035461019a9073ffffffffffffffffffffffffffffffffffffffff1681565b34801561033457600080fd5b5061022f600d5481565b34801561034a57600080fd5b5060085461019a9073ffffffffffffffffffffffffffffffffffffffff1681565b34801561037757600080fd5b5060055461019a9073ffffffffffffffffffffffffffffffffffffffff1681565b3480156103a457600080fd5b5061025d6103b336600461203a565b6110af565b3480156103c457600080fd5b5060065461019a9073ffffffffffffffffffffffffffffffffffffffff1681565b600a60205260009081526040902060018101805461040290612096565b80601f016020809104026020016040519081016040528092919081815260200182805461042e90612096565b801561047b5780601f106104505761010080835404028352916020019161047b565b820191906000526020600020905b81548152906001019060200180831161045e57829003601f168201915b50505050509080600201549080600301805461049690612096565b80601f01602080910402602001604051908101604052809291908181526020018280546104c290612096565b801561050f5780601f106104e45761010080835404028352916020019161050f565b820191906000526020600020905b8154815290600101906020018083116104f257829003601f168201915b50505050509080600401805461052490612096565b80601f016020809104026020016040519081016040528092919081815260200182805461055090612096565b801561059d5780601f106105725761010080835404028352916020019161059d565b820191906000526020600020905b81548152906001019060200180831161058057829003601f168201915b5050505060058301546006840154600785018054949560ff8085169661010090950416945091926105cd90612096565b80601f01602080910402602001604051908101604052809291908181526020018280546105f990612096565b80156106465780601f1061061b57610100808354040283529160200191610646565b820191906000526020600020905b81548152906001019060200180831161062957829003601f168201915b5050506008909301549192505073ffffffffffffffffffffffffffffffffffffffff81169060ff74010000000000000000000000000000000000000000909104168a565b61070360405180610160016040528060608152602001606081526020016000815260200160608152602001606081526020016000151581526020016000151581526020016000815260200160608152602001600073ffffffffffffffffffffffffffffffffffffffff1681526020016000151581525090565b6000828152600a602090815260409182902082518154610180938102820184019094526101608101848152909391928492849184018282801561076557602002820191906000526020600020905b815481526020019060010190808311610751575b5050505050815260200160018201805461077e90612096565b80601f01602080910402602001604051908101604052809291908181526020018280546107aa90612096565b80156107f75780601f106107cc576101008083540402835291602001916107f7565b820191906000526020600020905b8154815290600101906020018083116107da57829003601f168201915b505050505081526020016002820154815260200160038201805461081a90612096565b80601f016020809104026020016040519081016040528092919081815260200182805461084690612096565b80156108935780601f1061086857610100808354040283529160200191610893565b820191906000526020600020905b81548152906001019060200180831161087657829003601f168201915b505050505081526020016004820180546108ac90612096565b80601f01602080910402602001604051908101604052809291908181526020018280546108d890612096565b80156109255780601f106108fa57610100808354040283529160200191610925565b820191906000526020600020905b81548152906001019060200180831161090857829003601f168201915b5050509183525050600582015460ff8082161515602084015261010090910416151560408201526006820154606082015260078201805460809092019161096b90612096565b80601f016020809104026020016040519081016040528092919081815260200182805461099790612096565b80156109e45780601f106109b9576101008083540402835291602001916109e4565b820191906000526020600020905b8154815290600101906020018083116109c757829003601f168201915b50505091835250506008919091015473ffffffffffffffffffffffffffffffffffffffff8116602083015274010000000000000000000000000000000000000000900460ff16151560409091015292915050565b60025473ffffffffffffffffffffffffffffffffffffffff163314610ae4576040517f08c379a000000000000000000000000000000000000000000000000000000000815260206004820152602360248201527f554e415554484f52495a45443a2043414e4e4f545f504552464f524d5f41435460448201527f494f4e000000000000000000000000000000000000000000000000000000000060648201526084015b60405180910390fd5b600280547fffffffffffffffffffffffff00000000000000000000000000000000000000001673ffffffffffffffffffffffffffffffffffffffff92909216919091179055565b60095460009073ffffffffffffffffffffffffffffffffffffffff163314610bd5576040517f08c379a000000000000000000000000000000000000000000000000000000000815260206004820152602360248201527f554e415554484f52495a45443a2043414e4e4f545f504552464f524d5f41435460448201527f494f4e00000000000000000000000000000000000000000000000000000000006064820152608401610adb565b610c00836000015184602001518560400151866060015187608001516000600c5460018a6000611379565b9392505050565b600081341015610c73576040517f08c379a000000000000000000000000000000000000000000000000000000000815260206004820152601e60248201527f494e563a20494e53554646494349454e545f504c4154464f524d5f46454500006044820152606401610adb565b3415610cd85760405173ffffffffffffffffffffffffffffffffffffffff8416908390600081818185875af1925050503d8060008114610ccf576040519150601f19603f3d011682016040523d82523d6000602084013e610cd4565b606091505b5050505b60085484516040517fb260c8c300000000000000000000000000000000000000000000000000000000815260009273ffffffffffffffffffffffffffffffffffffffff169163b260c8c391610d32919033906004016120ea565b602060405180830381865afa158015610d4f573d6000803e3d6000fd5b505050506040513d601f19601f82011682018060405250810190610d739190612122565b905080610ddc576040517f08c379a000000000000000000000000000000000000000000000000000000000815260206004820152601a60248201527f494e56414c49443a204e4f545f415f545241434b5f4f574e45520000000000006044820152606401610adb565b50610e08846000015185602001518660400151876060015188608001516000600c546001336000611379565b949350505050565b60095460009073ffffffffffffffffffffffffffffffffffffffff163314610eba576040517f08c379a000000000000000000000000000000000000000000000000000000000815260206004820152602360248201527f554e415554484f52495a45443a2043414e4e4f545f504552464f524d5f41435460448201527f494f4e00000000000000000000000000000000000000000000000000000000006064820152608401610adb565b610c0083833461159f565b600081341015610f31576040517f08c379a000000000000000000000000000000000000000000000000000000000815260206004820152601e60248201527f494e563a20494e53554646494349454e545f504c4154464f524d5f46454500006044820152606401610adb565b3415610f965760405173ffffffffffffffffffffffffffffffffffffffff8416908390600081818185875af1925050503d8060008114610f8d576040519150601f19603f3d011682016040523d82523d6000602084013e610f92565b606091505b5050505b60085484516040517fb260c8c300000000000000000000000000000000000000000000000000000000815260009273ffffffffffffffffffffffffffffffffffffffff169163b260c8c391610ff0919033906004016120ea565b602060405180830381865afa15801561100d573d6000803e3d6000fd5b505050506040513d601f19601f820116820180604052508101906110319190612122565b90508061109a576040517f08c379a000000000000000000000000000000000000000000000000000000000815260206004820152601a60248201527f494e56414c49443a204e4f545f415f545241434b5f4f574e45520000000000006044820152606401610adb565b50610e0884336110aa853461213f565b61159f565b600054610100900460ff16158080156110cf5750600054600160ff909116105b806110e95750303b1580156110e9575060005460ff166001145b611175576040517f08c379a000000000000000000000000000000000000000000000000000000000815260206004820152602e60248201527f496e697469616c697a61626c653a20636f6e747261637420697320616c72656160448201527f647920696e697469616c697a65640000000000000000000000000000000000006064820152608401610adb565b600080547fffffffffffffffffffffffffffffffffffffffffffffffffffffffffffffff0016600117905580156111d357600080547fffffffffffffffffffffffffffffffffffffffffffffffffffffffffffff00ff166101001790555b60025473ffffffffffffffffffffffffffffffffffffffff16331461127a576040517f08c379a000000000000000000000000000000000000000000000000000000000815260206004820152602360248201527f554e415554484f52495a45443a2043414e4e4f545f504552464f524d5f41435460448201527f494f4e00000000000000000000000000000000000000000000000000000000006064820152608401610adb565b600380547fffffffffffffffffffffffff000000000000000000000000000000000000000090811673ffffffffffffffffffffffffffffffffffffffff88811691821790935560048054831690911790556005805482168784169081179091556006805483169091179055600780548216868416908117909155600880548316909117905560098054909116918416919091179055801561137257600080547fffffffffffffffffffffffffffffffffffffffffffffffffffffffffffff00ff169055604051600181527f7f26b83ff96e1f2b6a682f133852f6798a09c465da95921460cefb38474024989060200160405180910390a15b5050505050565b6000611389600180546001019055565b600061139460015490565b60408051610160810182528e815260208082018f90524282840152606082018e9052608082018d905288151560a08301528a151560c083015260e082018a905261010082018c905273ffffffffffffffffffffffffffffffffffffffff881661012083015260016101408301526000848152600a82529290922081518051949550919384939192611429928492910190611793565b50602082810151805161144292600185019201906117de565b5060408201516002820155606082015180516114689160038401916020909101906117de565b50608082015180516114849160048401916020909101906117de565b5060a082015160058201805460c08501517fffffffffffffffffffffffffffffffffffffffffffffffffffffffffffff00009091169215157fffffffffffffffffffffffffffffffffffffffffffffffffffffffffffff00ff1692909217610100921515830217905560e0830151600683015582015180516115109160078401916020909101906117de565b506101208201516008909101805461014090930151151574010000000000000000000000000000000000000000027fffffffffffffffffffffff00000000000000000000000000000000000000000090931673ffffffffffffffffffffffffffffffffffffffff9092169190911791909117905561158f82828661171e565b509b9a5050505050505050505050565b6000806115d385600001518660200151876040015188606001518960c001518a60a00151600b5460008c8e60800151611379565b60048054608088015161010089015160e08a01516040517f0d76a88200000000000000000000000000000000000000000000000000000000815294850186905260248501929092526044840152606483015291925073ffffffffffffffffffffffffffffffffffffffff90911690630d76a8829085906084016000604051808303818588803b15801561166557600080fd5b505af1158015611679573d6000803e3d6000fd5b505060065460808901516040517fc10df2cf00000000000000000000000000000000000000000000000000000000815273ffffffffffffffffffffffffffffffffffffffff909216945063c10df2cf93506116e39250908590600401918252602082015260400190565b600060405180830381600087803b1580156116fd57600080fd5b505af1158015611711573d6000803e3d6000fd5b5092979650505050505050565b7f3814e97c6d716ffbefb08fe07a4e810604088dbd58cb7fd64c056588de6935678383600001518460200151856040015186606001518760800151878960a001518a60c001518b60e001518c61010001516040516117869b9a9998979695949392919061217d565b60405180910390a1505050565b8280548282559060005260206000209081019282156117ce579160200282015b828111156117ce5782518255916020019190600101906117b3565b506117da929150611851565b5090565b8280546117ea90612096565b90600052602060002090601f01602090048101928261180c57600085556117ce565b82601f1061182557805160ff19168380011785556117ce565b828001600101855582156117ce57918201828111156117ce5782518255916020019190600101906117b3565b5b808211156117da5760008155600101611852565b60006020828403121561187857600080fd5b5035919050565b6000815180845260005b818110156118a557602081850181015186830182015201611889565b818111156118b7576000602083870101525b50601f017fffffffffffffffffffffffffffffffffffffffffffffffffffffffffffffffe0169290920160200192915050565b60006101408083526118fe8184018e61187f565b90508b60208401528281036040840152611918818c61187f565b9050828103606084015261192c818b61187f565b9050881515608084015287151560a08401528660c084015282810360e0840152611956818761187f565b73ffffffffffffffffffffffffffffffffffffffff9590951661010084015250509015156101209091015298975050505050505050565b600081518084526020808501945080840160005b838110156119bd578151875295820195908201906001016119a1565b509495945050505050565b60208152600082516101608060208501526119e761018085018361198d565b915060208501517fffffffffffffffffffffffffffffffffffffffffffffffffffffffffffffffe080868503016040870152611a23848361187f565b9350604087015160608701526060870151915080868503016080870152611a4a848361187f565b935060808701519150808685030160a0870152611a67848361187f565b935060a08701519150611a7e60c087018315159052565b60c087015180151560e0880152915060e08701519150610100828188015280880151925050610120818786030181880152611ab9858461187f565b94508088015192505050610140611ae78187018373ffffffffffffffffffffffffffffffffffffffff169052565b90950151151593019290925250919050565b73ffffffffffffffffffffffffffffffffffffffff81168114611b1b57600080fd5b50565b600060208284031215611b3057600080fd5b8135610c0081611af9565b7f4e487b7100000000000000000000000000000000000000000000000000000000600052604160045260246000fd5b60405160a0810167ffffffffffffffff81118282101715611b8d57611b8d611b3b565b60405290565b604051610120810167ffffffffffffffff81118282101715611b8d57611b8d611b3b565b604051601f82017fffffffffffffffffffffffffffffffffffffffffffffffffffffffffffffffe016810167ffffffffffffffff81118282101715611bfe57611bfe611b3b565b604052919050565b600082601f830112611c1757600080fd5b8135602067ffffffffffffffff821115611c3357611c33611b3b565b8160051b611c42828201611bb7565b9283528481018201928281019087851115611c5c57600080fd5b83870192505b84831015611c7b57823582529183019190830190611c62565b979650505050505050565b600082601f830112611c9757600080fd5b813567ffffffffffffffff811115611cb157611cb1611b3b565b611ce260207fffffffffffffffffffffffffffffffffffffffffffffffffffffffffffffffe0601f84011601611bb7565b818152846020838601011115611cf757600080fd5b816020850160208301376000918101602001919091529392505050565b600060a08284031215611d2657600080fd5b611d2e611b6a565b9050813567ffffffffffffffff80821115611d4857600080fd5b611d5485838601611c06565b83526020840135915080821115611d6a57600080fd5b611d7685838601611c86565b60208401526040840135915080821115611d8f57600080fd5b611d9b85838601611c86565b60408401526060840135915080821115611db457600080fd5b611dc085838601611c86565b60608401526080840135915080821115611dd957600080fd5b50611de684828501611c86565b60808301525092915050565b60008060408385031215611e0557600080fd5b823567ffffffffffffffff811115611e1c57600080fd5b611e2885828601611d14565b9250506020830135611e3981611af9565b809150509250929050565b600080600060608486031215611e5957600080fd5b833567ffffffffffffffff811115611e7057600080fd5b611e7c86828701611d14565b9350506020840135611e8d81611af9565b929592945050506040919091013590565b8015158114611b1b57600080fd5b8035611eb781611e9e565b919050565b60006101208284031215611ecf57600080fd5b611ed7611b93565b9050813567ffffffffffffffff80821115611ef157600080fd5b611efd85838601611c06565b83526020840135915080821115611f1357600080fd5b611f1f85838601611c86565b60208401526040840135915080821115611f3857600080fd5b611f4485838601611c86565b60408401526060840135915080821115611f5d57600080fd5b611f6985838601611c86565b606084015260808401356080840152611f8460a08501611eac565b60a084015260c0840135915080821115611f9d57600080fd5b50611faa84828501611c86565b60c08301525060e082013560e082015261010080830135818301525092915050565b60008060408385031215611fdf57600080fd5b823567ffffffffffffffff811115611ff657600080fd5b611e2885828601611ebc565b60008060006060848603121561201757600080fd5b833567ffffffffffffffff81111561202e57600080fd5b611e7c86828701611ebc565b6000806000806080858703121561205057600080fd5b843561205b81611af9565b9350602085013561206b81611af9565b9250604085013561207b81611af9565b9150606085013561208b81611af9565b939692955090935050565b600181811c908216806120aa57607f821691505b602082108114156120e4577f4e487b7100000000000000000000000000000000000000000000000000000000600052602260045260246000fd5b50919050565b6040815260006120fd604083018561198d565b905073ffffffffffffffffffffffffffffffffffffffff831660208301529392505050565b60006020828403121561213457600080fd5b8151610c0081611e9e565b600082821015612178577f4e487b7100000000000000000000000000000000000000000000000000000000600052601160045260246000fd5b500390565b60006101608d83528060208401526121978184018e61198d565b905082810360408401526121ab818d61187f565b90508a606084015282810360808401526121c5818b61187f565b905082810360a08401526121d9818a61187f565b90508760c084015286151560e08401528515156101008401528461012084015282810361014084015261220c818561187f565b9e9d505050505050505050505050505056fea2646970667358221220c0800af0e360a3c7b2399bc70c8a191f48cc4ffcff671bc3644ab645bb6aef4264736f6c634300080c0033",
  "immutableReferences": {},
  "source": "pragma solidity ^0.8.0;\n\nimport \"@openzeppelin/contracts/token/ERC721/ERC721.sol\";\nimport \"@openzeppelin/contracts/utils/Counters.sol\";\nimport \"@openzeppelin/contracts/access/Ownable.sol\";\nimport \"@openzeppelin/contracts-upgradeable/proxy/utils/Initializable.sol\";\nimport \"./voting/ContributionVotingContract.sol\";\nimport \"./interface/IRecords.sol\";\nimport \"./interface/ITracks.sol\";\n\ncontract ContributionContract is Initializable {\n    using Counters for Counters.Counter;\n\n    /// @dev this is Contribution Create event this event will be emitted when a new contribution is created.\n    /// @param contributionId it is the unique identifier for the contribution\n    /// @param tracks are id of the tracks that are part of this contribution, you will have to manually fetch the\n    /// tracks data from trackId once you do the indexing.\n    /// @param title title of the contribution\n    /// @param createdAt createdAt is indicates the time of creation of the contribution\n    /// @param previewFile this is the file that contains the mix of the contribution also known as preview file\n    /// @param previewFileHash this is the hash of the preview file to make sure the previewFile is not tampered with\n    /// @param recordId this is the id of the record to which the contribution belong to\n    /// @param seedContribution this flag determines if the contribution is a seed contribution or not\n    /// @param roughMix this flag determines if the contribution is a new contribution, with new tracks or is it just mix\n    /// of all the previous tracks\n    /// @param status this is status of the contribution that is (PENDING = 1 | ACCEPTED = 2| REJECTED = 3)\n    /// @param description the description of record that is in text format\n    event ContributionCreated(\n        uint256 contributionId,\n        uint256[] tracks,\n        string title,\n        uint256 createdAt,\n        string previewFile,\n        string previewFileHash,\n        uint256 recordId,\n        bool seedContribution,\n        bool roughMix,\n        uint256 status,\n        string description\n    );\n\n    /// @dev This structure will store information of the contribution\n    /// @param tracks Array of id of tracks\n    /// @param title title of the contribution\n    /// @param createdAt blocknumber of when the contribution was created\n    /// @param previewFile This is the preview file link\n    /// @param previewFileHash This is the preview file hash\n    // / @param recordId This is the id of the record to which contribution belongs to\n    /// @param seedContribution This flag determines if it is a seed contribution or not\n    /// @param roughMix This flag determines if it is a rough mix or not, true if rough mix or else false\n    /// @param status This specifies the status of contribution PENDING = 1 | ACCEPTED = 2| REJECTED = 3\n    /// @param description This is the description that is entered by user\n    /// @param owner This is the owner of the contribution\n    /// @param isPresent This is to check if a contribution exists or not\n    struct Contribution {\n        uint256[] tracks;\n        string title;\n        uint256 createdAt;\n        string previewFile;\n        string previewFileHash;\n        bool seedContribution;\n        bool roughMix;\n        uint256 status;\n        string description;\n        address owner;\n        bool isPresent;\n    }\n\n    /// @param tracks Id of tracks that are part of this contribution\n    /// @param title title of the contribution\n    /// @param previewFile this is preview file of the contribution\n    /// @param previewFileHash this is hash of the preview file\n    /// @param recordId this is the id of the record to which contribution belongs to.\n    /// @param roughMix this represents if a contribution is a roughMix or is a new contribution\n    /// @param description this is the description of the new contribution that is created.\n    /// @param communityReward this is the amount of community token that the contributor is requesting\n    /// for his work contribution.\n    /// @param governanceReward this is the amount of governance token that the contributor is requesting for his\n    /// work contribution.\n    struct NewContributionPayload {\n        uint256[] tracks;\n        string title;\n        string previewFile;\n        string previewFileHash;\n        uint256 recordId;\n        bool roughMix;\n        string description;\n        uint256 communityReward;\n        uint256 governanceReward;\n    }\n\n    /// @param tracks Id of tracks that are part of this contribution\n    /// @param title it is the title of the contribution\n    /// @param previewFile this is preview file of the contribution\n    /// @param previewFileHash this is hash of the preview file\n    /// @param description this is the description of the new contribution that is created.\n    struct SeedContributionPayload {\n        uint256[] tracks;\n        string title;\n        string previewFile;\n        string previewFileHash;\n        string description;\n    }\n\n    Counters.Counter private _contributionIds;\n    address public OWNER;\n    address public CONTRIBUTION_VOTING_CONTRACT_ADDRESS;\n    ContributionVotingContract contributionVotingContract;\n    address public RECORD_CONTRACT_ADDRESS;\n    IRecords public recordsContract;\n    address public TRACKS_CONTRACT_ADDRESS;\n    ITracks public trackInterface;\n    address public CONTROLLER_CONTRACT_ADDRESS;\n    mapping(uint256 => Contribution) public contributionData;\n    uint256 public PENDING = 1;\n    uint256 public ACCEPTED = 2;\n    uint256 public REJECTED = 3;\n\n    constructor(address owner) {\n        OWNER = owner;\n    }\n\n    /// @dev Modifier to check that the person who accesses a specific function is the owner of contract himself.\n    modifier ownerOnly() {\n        require(msg.sender == OWNER, \"UNAUTHORIZED: CANNOT_PERFORM_ACTION\");\n        _;\n    }\n\n    /// @dev Modifier to restrict the function call from controller contract\n    modifier controllerContractOnly() {\n        require(\n            msg.sender == CONTROLLER_CONTRACT_ADDRESS,\n            \"UNAUTHORIZED: CANNOT_PERFORM_ACTION\"\n        );\n        _;\n    }\n\n    /// @dev This is to set the address of the contracts\n    /// @param newVotingContractAddress this is the address of new voting contract\n    /// @param newRecordsContractAddress this is the address of new Records contract\n    /// @param newTracksContractAddress this is the address of new tracks contract\n    /// @param controllerContractAddress this is the address of controller contract\n    function initialize(\n        address newVotingContractAddress,\n        address newRecordsContractAddress,\n        address newTracksContractAddress,\n        address controllerContractAddress\n    ) public initializer ownerOnly {\n        CONTRIBUTION_VOTING_CONTRACT_ADDRESS = newVotingContractAddress;\n        contributionVotingContract = ContributionVotingContract(\n            CONTRIBUTION_VOTING_CONTRACT_ADDRESS\n        );\n        RECORD_CONTRACT_ADDRESS = newRecordsContractAddress;\n        recordsContract = IRecords(RECORD_CONTRACT_ADDRESS);\n        TRACKS_CONTRACT_ADDRESS = newTracksContractAddress;\n        trackInterface = ITracks(TRACKS_CONTRACT_ADDRESS);\n        CONTROLLER_CONTRACT_ADDRESS = controllerContractAddress;\n    }\n\n    /// @dev This function sets the owner address\n    /// @param ownerAddress This is the address of the owner\n    function setOwnerAddress(address ownerAddress) public ownerOnly {\n        OWNER = ownerAddress;\n    }\n\n    /// @dev This function returns contribution data\n    /// @param contributionId Id of the contribution whose data you want\n    function getContributionData(\n        uint256 contributionId\n    ) public view returns (Contribution memory contribution) {\n        return contributionData[contributionId];\n    }\n\n    /// @dev This function will be called by the user to create a new contribution\n    /// @param payload this is the data required for creation of new contribution\n    /// @param platformWallet this is the UI providers wallet\n    /// @param platformFee this is the incentive amount for the UI maintainer\n    function createNewContribution(\n        NewContributionPayload memory payload,\n        address payable platformWallet,\n        uint256 platformFee\n    ) public payable returns (uint256) {\n        {\n            require(msg.value >= platformFee, \"INV: INSUFFICIENT_PLATFORM_FEE\");\n            if (msg.value > 0) {\n                platformWallet.call{value: platformFee}(\"\");\n            }\n\n            bool ownerStatus = trackInterface.checkOwner(\n                payload.tracks,\n                msg.sender\n            );\n\n            require(ownerStatus, \"INVALID: NOT_A_TRACK_OWNER\");\n        }\n\n        return\n            createContributionAndVoting(\n                payload,\n                msg.sender,\n                msg.value - platformFee\n            );\n    }\n\n    /// @dev This function will be called by the controller contract to create a new contribution and voting\n    /// @param payload this is the data required for creation of new contribution\n    /// @param owner this is the owner of the new contribution which is to be created\n    function controllerCreateNewContribution(\n        NewContributionPayload memory payload,\n        address owner\n    ) public payable controllerContractOnly returns (uint256) {\n        return createContributionAndVoting(payload, owner, msg.value);\n    }\n\n    /// @dev This function is responsible to create a non seed contribution and to create voting for contribution\n    /// @param payload this is the data required for creation of new contribution\n    /// @param owner this is the owner of the contribution\n    /// @param depositAmount this is the deposit amount for voting creation\n    function createContributionAndVoting(\n        NewContributionPayload memory payload,\n        address owner,\n        uint256 depositAmount\n    ) internal returns (uint256) {\n        uint256 contributionId = _createContribution(\n            payload.tracks,\n            payload.title,\n            payload.previewFile,\n            payload.previewFileHash,\n            payload.description,\n            payload.roughMix,\n            PENDING,\n            false,\n            owner,\n            payload.recordId\n        );\n\n        {\n            contributionVotingContract.createContributionVotingBallot{\n                value: depositAmount\n            }(\n                contributionId,\n                payload.recordId,\n                payload.governanceReward,\n                payload.communityReward\n            );\n\n            recordsContract.pushContributionIdToContributionList(\n                payload.recordId,\n                contributionId\n            );\n        }\n        return contributionId;\n    }\n\n    /// @dev This function will be called by the user to create a new seed contribution as there will be not voting\n    /// or anything like that\n    /// @param payload data for the seed contribution creation\n    /// @param platformWallet this is the UI providers wallet\n    /// @param platformFee this is the incentive amount for the UI maintainer\n    function createSeedContribution(\n        SeedContributionPayload memory payload,\n        address payable platformWallet,\n        uint256 platformFee\n    ) public payable returns (uint256) {\n        {\n            require(msg.value >= platformFee, \"INV: INSUFFICIENT_PLATFORM_FEE\");\n            if (msg.value > 0) {\n                platformWallet.call{value: platformFee}(\"\");\n            }\n\n            bool ownerStatus = trackInterface.checkOwner(\n                payload.tracks,\n                msg.sender\n            );\n\n            require(ownerStatus, \"INVALID: NOT_A_TRACK_OWNER\");\n        }\n\n        return\n            _createContribution(\n                payload.tracks,\n                payload.title,\n                payload.previewFile,\n                payload.previewFileHash,\n                payload.description,\n                false,\n                ACCEPTED,\n                true,\n                msg.sender,\n                0\n            );\n    }\n\n    /// @dev This function is to be called only by the controller contract that is created to bundle multiple contract calls into single function\n    /// @param payload data for the seed contribution creation\n    /// @param owner address of the owner of the seed contribution\n    function controllerCreateSeedContribution(\n        SeedContributionPayload memory payload,\n        address owner\n    ) public controllerContractOnly returns (uint256) {\n        return\n            _createContribution(\n                payload.tracks,\n                payload.title,\n                payload.previewFile,\n                payload.previewFileHash,\n                payload.description,\n                false,\n                ACCEPTED,\n                true,\n                owner,\n                0\n            );\n    }\n\n    /// @dev This function is an internal function that creates the contribution\n    /// @param tracks Id of tracks that are part of this contribution\n    /// @param previewFile this is preview file of the contribution\n    /// @param previewFileHash this is hash of the preview file\n    /// @param description this is the description of the new contribution that is created.\n    /// @param roughMix this flag denotes if the contribution is a rough mix or a new contributions\n    /// @param status this is the status of the contribution\n    /// @param isSeed this denotes if it is seed contribution or not\n    /// @param owner this is the owner address\n    /// @param recordId this is the record id to which the contribution belongs\n    function _createContribution(\n        uint256[] memory tracks,\n        string memory title,\n        string memory previewFile,\n        string memory previewFileHash,\n        string memory description,\n        bool roughMix,\n        uint status,\n        bool isSeed,\n        address owner,\n        uint recordId\n    ) internal returns (uint256) {\n        _contributionIds.increment();\n\n        uint256 contributionId = _contributionIds.current();\n\n        Contribution memory contribution = Contribution({\n            tracks: tracks,\n            title: title,\n            createdAt: block.timestamp,\n            previewFile: previewFile,\n            previewFileHash: previewFileHash,\n            roughMix: roughMix,\n            status: status,\n            description: description,\n            seedContribution: isSeed,\n            owner: owner,\n            isPresent: true\n        });\n\n        contributionData[contributionId] = contribution;\n\n        emitContributionCreated(contributionId, contribution, recordId);\n\n        return contributionId;\n    }\n\n    function emitContributionCreated(\n        uint256 contributionId,\n        Contribution memory contribution,\n        uint256 recordId\n    ) internal {\n        emit ContributionCreated(\n            contributionId,\n            contribution.tracks,\n            contribution.title,\n            contribution.createdAt,\n            contribution.previewFile,\n            contribution.previewFileHash,\n            recordId,\n            contribution.seedContribution,\n            contribution.roughMix,\n            contribution.status,\n            contribution.description\n        );\n    }\n}\n",
  "sourcePath": "/Users/a1/Desktop/Office/projects/CrowdRecords/Contracts/contracts/ContributionContract.sol",
  "compiler": {
    "name": "solc",
    "version": "0.8.12+commit.f00d7308.Emscripten.clang"
  },
  "schemaVersion": "3.4.6",
  "updatedAt": "2023-07-12T07:16:52.849Z",
  "networkType": "ethereum",
  "devdoc": {
    "events": {
      "ContributionCreated(uint256,uint256[],string,uint256,string,string,uint256,bool,bool,uint256,string)": {
        "details": "this is Contribution Create event this event will be emitted when a new contribution is created.",
        "params": {
          "contributionId": "it is the unique identifier for the contribution",
          "createdAt": "createdAt is indicates the time of creation of the contribution",
          "description": "the description of record that is in text format",
          "previewFile": "this is the file that contains the mix of the contribution also known as preview file",
          "previewFileHash": "this is the hash of the preview file to make sure the previewFile is not tampered with",
          "recordId": "this is the id of the record to which the contribution belong to",
          "roughMix": "this flag determines if the contribution is a new contribution, with new tracks or is it just mix of all the previous tracks",
          "seedContribution": "this flag determines if the contribution is a seed contribution or not",
          "status": "this is status of the contribution that is (PENDING = 1 | ACCEPTED = 2| REJECTED = 3)",
          "title": "title of the contribution",
          "tracks": "are id of the tracks that are part of this contribution, you will have to manually fetch the tracks data from trackId once you do the indexing."
        }
      }
    },
    "kind": "dev",
    "methods": {
      "controllerCreateNewContribution((uint256[],string,string,string,uint256,bool,string,uint256,uint256),address)": {
        "details": "This function will be called by the controller contract to create a new contribution and voting",
        "params": {
          "owner": "this is the owner of the new contribution which is to be created",
          "payload": "this is the data required for creation of new contribution"
        }
      },
      "controllerCreateSeedContribution((uint256[],string,string,string,string),address)": {
        "details": "This function is to be called only by the controller contract that is created to bundle multiple contract calls into single function",
        "params": {
          "owner": "address of the owner of the seed contribution",
          "payload": "data for the seed contribution creation"
        }
      },
      "createNewContribution((uint256[],string,string,string,uint256,bool,string,uint256,uint256),address,uint256)": {
        "details": "This function will be called by the user to create a new contribution",
        "params": {
          "payload": "this is the data required for creation of new contribution",
          "platformFee": "this is the incentive amount for the UI maintainer",
          "platformWallet": "this is the UI providers wallet"
        }
      },
      "createSeedContribution((uint256[],string,string,string,string),address,uint256)": {
        "details": "This function will be called by the user to create a new seed contribution as there will be not voting or anything like that",
        "params": {
          "payload": "data for the seed contribution creation",
          "platformFee": "this is the incentive amount for the UI maintainer",
          "platformWallet": "this is the UI providers wallet"
        }
      },
      "getContributionData(uint256)": {
        "details": "This function returns contribution data",
        "params": {
          "contributionId": "Id of the contribution whose data you want"
        }
      },
      "initialize(address,address,address,address)": {
        "details": "This is to set the address of the contracts",
        "params": {
          "controllerContractAddress": "this is the address of controller contract",
          "newRecordsContractAddress": "this is the address of new Records contract",
          "newTracksContractAddress": "this is the address of new tracks contract",
          "newVotingContractAddress": "this is the address of new voting contract"
        }
      },
      "setOwnerAddress(address)": {
        "details": "This function sets the owner address",
        "params": {
          "ownerAddress": "This is the address of the owner"
        }
      }
    },
    "version": 1
  },
  "userdoc": {
    "kind": "user",
    "methods": {},
    "version": 1
  }
}