{
  "contractName": "DilutionContract",
  "abi": [
    {
      "inputs": [
        {
          "internalType": "uint8",
          "name": "votingInterval",
          "type": "uint8"
        },
        {
          "internalType": "uint256",
          "name": "requestInterval",
          "type": "uint256"
        },
        {
          "internalType": "address",
          "name": "owner",
          "type": "address"
        }
      ],
      "stateMutability": "nonpayable",
      "type": "constructor"
    },
    {
      "anonymous": false,
      "inputs": [
        {
          "indexed": false,
          "internalType": "address",
          "name": "owner",
          "type": "address"
        },
        {
          "indexed": false,
          "internalType": "uint256",
          "name": "ballotId",
          "type": "uint256"
        },
        {
          "indexed": false,
          "internalType": "uint256",
          "name": "depositAmount",
          "type": "uint256"
        }
      ],
      "name": "DepositClaimed",
      "type": "event"
    },
    {
      "anonymous": false,
      "inputs": [
        {
          "indexed": false,
          "internalType": "address",
          "name": "owner",
          "type": "address"
        },
        {
          "indexed": false,
          "internalType": "uint256",
          "name": "ballotId",
          "type": "uint256"
        },
        {
          "indexed": false,
          "internalType": "uint256",
          "name": "depositAmount",
          "type": "uint256"
        },
        {
          "indexed": false,
          "internalType": "bool",
          "name": "isClaimed",
          "type": "bool"
        },
        {
          "indexed": false,
          "internalType": "bool",
          "name": "isPresent",
          "type": "bool"
        }
      ],
      "name": "DepositCreated",
      "type": "event"
    },
    {
      "anonymous": false,
      "inputs": [
        {
          "indexed": false,
          "internalType": "address",
          "name": "requester",
          "type": "address"
        },
        {
          "indexed": false,
          "internalType": "uint256",
          "name": "recordId",
          "type": "uint256"
        },
        {
          "indexed": false,
          "internalType": "uint256",
          "name": "dilutionId",
          "type": "uint256"
        },
        {
          "indexed": false,
          "internalType": "uint256",
          "name": "ballotId",
          "type": "uint256"
        },
        {
          "indexed": false,
          "internalType": "uint256",
          "name": "tokenId",
          "type": "uint256"
        },
        {
          "indexed": false,
          "internalType": "uint256",
          "name": "amount",
          "type": "uint256"
        }
      ],
      "name": "DilutionRequestCreated",
      "type": "event"
    },
    {
      "anonymous": false,
      "inputs": [
        {
          "indexed": false,
          "internalType": "uint256",
          "name": "dilutionId",
          "type": "uint256"
        },
        {
          "indexed": false,
          "internalType": "uint256",
          "name": "tokenId",
          "type": "uint256"
        },
        {
          "indexed": false,
          "internalType": "uint256",
          "name": "ballotId",
          "type": "uint256"
        },
        {
          "indexed": false,
          "internalType": "bool",
          "name": "result",
          "type": "bool"
        },
        {
          "indexed": false,
          "internalType": "bool",
          "name": "minTurnOut",
          "type": "bool"
        }
      ],
      "name": "DilutionResult",
      "type": "event"
    },
    {
      "anonymous": false,
      "inputs": [
        {
          "indexed": false,
          "internalType": "address",
          "name": "voter",
          "type": "address"
        },
        {
          "indexed": false,
          "internalType": "uint256",
          "name": "dilutionId",
          "type": "uint256"
        },
        {
          "indexed": false,
          "internalType": "uint256",
          "name": "ballotId",
          "type": "uint256"
        },
        {
          "indexed": false,
          "internalType": "bool",
          "name": "vote",
          "type": "bool"
        }
      ],
      "name": "DilutionVoting",
      "type": "event"
    },
    {
      "anonymous": false,
      "inputs": [
        {
          "indexed": false,
          "internalType": "uint8",
          "name": "version",
          "type": "uint8"
        }
      ],
      "name": "Initialized",
      "type": "event"
    },
    {
      "inputs": [],
      "name": "GOVERNANCE",
      "outputs": [
        {
          "internalType": "address",
          "name": "",
          "type": "address"
        }
      ],
      "stateMutability": "view",
      "type": "function",
      "constant": true
    },
    {
      "inputs": [],
      "name": "MIN_TURNOUT_PERCENT",
      "outputs": [
        {
          "internalType": "uint256",
          "name": "",
          "type": "uint256"
        }
      ],
      "stateMutability": "view",
      "type": "function",
      "constant": true
    },
    {
      "inputs": [],
      "name": "OWNER",
      "outputs": [
        {
          "internalType": "address",
          "name": "",
          "type": "address"
        }
      ],
      "stateMutability": "view",
      "type": "function",
      "constant": true
    },
    {
      "inputs": [],
      "name": "REQUEST_INTERVAL",
      "outputs": [
        {
          "internalType": "uint256",
          "name": "",
          "type": "uint256"
        }
      ],
      "stateMutability": "view",
      "type": "function",
      "constant": true
    },
    {
      "inputs": [],
      "name": "TREASURY_CONTRACT_ADDRESS",
      "outputs": [
        {
          "internalType": "address",
          "name": "",
          "type": "address"
        }
      ],
      "stateMutability": "view",
      "type": "function",
      "constant": true
    },
    {
      "inputs": [],
      "name": "TREASURY_HUB_ADDRESS",
      "outputs": [
        {
          "internalType": "address",
          "name": "",
          "type": "address"
        }
      ],
      "stateMutability": "view",
      "type": "function",
      "constant": true
    },
    {
      "inputs": [],
      "name": "VOTING_BLOCK_PERIOD",
      "outputs": [
        {
          "internalType": "uint256",
          "name": "",
          "type": "uint256"
        }
      ],
      "stateMutability": "view",
      "type": "function",
      "constant": true
    },
    {
      "inputs": [],
      "name": "VOTING_DEPOSIT",
      "outputs": [
        {
          "internalType": "uint256",
          "name": "",
          "type": "uint256"
        }
      ],
      "stateMutability": "view",
      "type": "function",
      "constant": true
    },
    {
      "inputs": [
        {
          "internalType": "address",
          "name": "user",
          "type": "address"
        },
        {
          "internalType": "uint256",
          "name": "tokenId",
          "type": "uint256"
        },
        {
          "internalType": "uint256",
          "name": "previousBalance",
          "type": "uint256"
        },
        {
          "internalType": "uint256",
          "name": "newBalance",
          "type": "uint256"
        }
      ],
      "name": "_handleUserTokenTransfers",
      "outputs": [],
      "stateMutability": "nonpayable",
      "type": "function"
    },
    {
      "inputs": [
        {
          "internalType": "uint256",
          "name": "",
          "type": "uint256"
        }
      ],
      "name": "activeDilutionRequestMap",
      "outputs": [
        {
          "internalType": "uint256",
          "name": "",
          "type": "uint256"
        }
      ],
      "stateMutability": "view",
      "type": "function",
      "constant": true
    },
    {
      "inputs": [
        {
          "internalType": "uint256",
          "name": "",
          "type": "uint256"
        }
      ],
      "name": "depositMap",
      "outputs": [
        {
          "internalType": "address",
          "name": "owner",
          "type": "address"
        },
        {
          "internalType": "uint256",
          "name": "ballotId",
          "type": "uint256"
        },
        {
          "internalType": "uint256",
          "name": "depositAmount",
          "type": "uint256"
        },
        {
          "internalType": "bool",
          "name": "isClaimed",
          "type": "bool"
        },
        {
          "internalType": "bool",
          "name": "isPresent",
          "type": "bool"
        }
      ],
      "stateMutability": "view",
      "type": "function",
      "constant": true
    },
    {
      "inputs": [
        {
          "internalType": "uint256",
          "name": "",
          "type": "uint256"
        }
      ],
      "name": "lastDilutionResultMap",
      "outputs": [
        {
          "internalType": "uint256",
          "name": "",
          "type": "uint256"
        }
      ],
      "stateMutability": "view",
      "type": "function",
      "constant": true
    },
    {
      "inputs": [
        {
          "internalType": "uint256",
          "name": "depositAmount",
          "type": "uint256"
        }
      ],
      "name": "setDepositAmount",
      "outputs": [],
      "stateMutability": "nonpayable",
      "type": "function"
    },
    {
      "inputs": [
        {
          "internalType": "uint256",
          "name": "minTurnOut",
          "type": "uint256"
        }
      ],
      "name": "setMinTurnOut",
      "outputs": [],
      "stateMutability": "nonpayable",
      "type": "function"
    },
    {
      "inputs": [
        {
          "internalType": "address",
          "name": "ownerAddress",
          "type": "address"
        }
      ],
      "name": "setOwnerAddress",
      "outputs": [],
      "stateMutability": "nonpayable",
      "type": "function"
    },
    {
      "inputs": [
        {
          "internalType": "uint256",
          "name": "votingPeriod",
          "type": "uint256"
        }
      ],
      "name": "setVotingPeriod",
      "outputs": [],
      "stateMutability": "nonpayable",
      "type": "function"
    },
    {
      "inputs": [],
      "name": "treasuryContract",
      "outputs": [
        {
          "internalType": "contract ITreasury",
          "name": "",
          "type": "address"
        }
      ],
      "stateMutability": "view",
      "type": "function",
      "constant": true
    },
    {
      "inputs": [],
      "name": "treasuryCoreContract",
      "outputs": [
        {
          "internalType": "contract ITreasuryCore",
          "name": "",
          "type": "address"
        }
      ],
      "stateMutability": "view",
      "type": "function",
      "constant": true
    },
    {
      "inputs": [
        {
          "internalType": "uint256",
          "name": "",
          "type": "uint256"
        }
      ],
      "name": "votingMap",
      "outputs": [
        {
          "internalType": "address",
          "name": "owner",
          "type": "address"
        },
        {
          "internalType": "uint256",
          "name": "yesWeight",
          "type": "uint256"
        },
        {
          "internalType": "uint256",
          "name": "yesCount",
          "type": "uint256"
        },
        {
          "internalType": "uint256",
          "name": "noWeight",
          "type": "uint256"
        },
        {
          "internalType": "uint256",
          "name": "noCount",
          "type": "uint256"
        },
        {
          "internalType": "uint256",
          "name": "tokenId",
          "type": "uint256"
        },
        {
          "internalType": "uint256",
          "name": "votingEndBlock",
          "type": "uint256"
        },
        {
          "internalType": "bool",
          "name": "isResultDeclared",
          "type": "bool"
        },
        {
          "internalType": "bool",
          "name": "canOwnerVote",
          "type": "bool"
        },
        {
          "internalType": "bool",
          "name": "isPresent",
          "type": "bool"
        }
      ],
      "stateMutability": "view",
      "type": "function",
      "constant": true
    },
    {
      "inputs": [
        {
          "internalType": "address",
          "name": "newTreasuryContractAddress",
          "type": "address"
        },
        {
          "internalType": "address",
          "name": "newGovernanceContractAddress",
          "type": "address"
        }
      ],
      "name": "initialize",
      "outputs": [],
      "stateMutability": "nonpayable",
      "type": "function"
    },
    {
      "inputs": [
        {
          "internalType": "address",
          "name": "newTreasuryContractAddress",
          "type": "address"
        },
        {
          "internalType": "address",
          "name": "newTreasuryCoreContractAddress",
          "type": "address"
        },
        {
          "internalType": "address",
          "name": "newGovernanceContractAddress",
          "type": "address"
        }
      ],
      "name": "initialize",
      "outputs": [],
      "stateMutability": "nonpayable",
      "type": "function"
    },
    {
      "inputs": [
        {
          "internalType": "uint256",
          "name": "recordId",
          "type": "uint256"
        },
        {
          "internalType": "uint256",
          "name": "tokenId",
          "type": "uint256"
        },
        {
          "internalType": "uint256",
          "name": "amount",
          "type": "uint256"
        }
      ],
      "name": "createDilutionRequest",
      "outputs": [],
      "stateMutability": "payable",
      "type": "function",
      "payable": true
    },
    {
      "inputs": [
        {
          "internalType": "uint256",
          "name": "dilutionId",
          "type": "uint256"
        },
        {
          "internalType": "bool",
          "name": "vote",
          "type": "bool"
        }
      ],
      "name": "castVote",
      "outputs": [],
      "stateMutability": "nonpayable",
      "type": "function"
    },
    {
      "inputs": [
        {
          "internalType": "uint256",
          "name": "dilutionId",
          "type": "uint256"
        }
      ],
      "name": "declareWinner",
      "outputs": [],
      "stateMutability": "nonpayable",
      "type": "function"
    }
  ],
  "bytecode": "0x6080604052662386f26fc1000060015560196002556101f460035560006009553480156200002c57600080fd5b5060405162002c3a38038062002c3a8339810160408190526200004f9162000081565b600780546001600160a01b039092166001600160a01b031990921691909117905560ff909116600255601455620000d9565b6000806000606084860312156200009757600080fd5b835160ff81168114620000a957600080fd5b6020850151604086015191945092506001600160a01b0381168114620000ce57600080fd5b809150509250925092565b612b5180620000e96000396000f3fe60806040526004361061018a5760003560e01c806383b0b071116100d6578063c64f89591161007f578063ea0217cf11610059578063ea0217cf146105f3578063ef0dee0414610613578063fcd2d3f71461062957600080fd5b8063c64f895914610593578063c6a1b51f146105c0578063e1f2e084146105d357600080fd5b8063abb7ed7f116100b0578063abb7ed7f14610526578063acb3149314610546578063c0c53b8b1461057357600080fd5b806383b0b0711461043b578063879253a3146104e35780638d2ae1f7146104f957600080fd5b8063331a6bf51161013857806363e249c11161011257806363e249c1146103135780636c83244a146104055780636d8cee561461041b57600080fd5b8063331a6bf5146102bd57806333e0ea2e146102dd578063485cc955146102f357600080fd5b80631498c812116101695780631498c8121461023557806315373e3d1461027057806318da00111461029057600080fd5b8062c2943c1461018f578063117803e3146101b15780631462783414610208575b600080fd5b34801561019b57600080fd5b506101af6101aa3660046127ec565b610656565b005b3480156101bd57600080fd5b506007546101de9073ffffffffffffffffffffffffffffffffffffffff1681565b60405173ffffffffffffffffffffffffffffffffffffffff90911681526020015b60405180910390f35b34801561021457600080fd5b506008546101de9073ffffffffffffffffffffffffffffffffffffffff1681565b34801561024157600080fd5b506102626102503660046127ec565b60126020526000908152604090205481565b6040519081526020016101ff565b34801561027c57600080fd5b506101af61028b366004612805565b61084c565b34801561029c57600080fd5b506005546101de9073ffffffffffffffffffffffffffffffffffffffff1681565b3480156102c957600080fd5b506101af6102d8366004612863565b61094a565b3480156102e957600080fd5b5061026260035481565b3480156102ff57600080fd5b506101af61030e366004612885565b610a38565b34801561031f57600080fd5b5061039e61032e3660046127ec565b600a602052600090815260409020805460018201546002830154600384015460048501546005860154600687015460079097015473ffffffffffffffffffffffffffffffffffffffff909616969495939492939192909160ff80821691610100810482169162010000909104168a565b6040805173ffffffffffffffffffffffffffffffffffffffff909b168b5260208b0199909952978901969096526060880194909452608087019290925260a086015260c0850152151560e084015215156101008301521515610120820152610140016101ff565b34801561041157600080fd5b5061026260025481565b34801561042757600080fd5b506101af6104363660046127ec565b610b2f565b34801561044757600080fd5b506104a06104563660046127ec565b600d60205260009081526040902080546001820154600283015460039093015473ffffffffffffffffffffffffffffffffffffffff90921692909160ff8082169161010090041685565b6040805173ffffffffffffffffffffffffffffffffffffffff9096168652602086019490945292840191909152151560608301521515608082015260a0016101ff565b3480156104ef57600080fd5b5061026260015481565b34801561050557600080fd5b506006546101de9073ffffffffffffffffffffffffffffffffffffffff1681565b34801561053257600080fd5b506101af6105413660046128b8565b610bb5565b34801561055257600080fd5b506004546101de9073ffffffffffffffffffffffffffffffffffffffff1681565b34801561057f57600080fd5b506101af61058e3660046128f1565b610d73565b34801561059f57600080fd5b506102626105ae3660046127ec565b60136020526000908152604090205481565b6101af6105ce366004612934565b610ff1565b3480156105df57600080fd5b506101af6105ee3660046127ec565b6116ca565b3480156105ff57600080fd5b506101af61060e3660046127ec565b611750565b34801561061f57600080fd5b5061026260145481565b34801561063557600080fd5b506010546101de9073ffffffffffffffffffffffffffffffffffffffff1681565b6000818152601160205260408120600301548190610673906117d6565b600085815260116020526040902060030154919350915061069390611af4565b6000838152601160209081526040918290206004810154600390910154835187815292830191909152818301528315156060820152821515608082015290517f98dcce17b337dff96fcc22a1e082df59d1beb8b2291b23b2a099690c8d8ac8e29181900360a00190a181156107e1576005805460008581526011602052604090819020600480820154919094015491517f34a7c2e700000000000000000000000000000000000000000000000000000000815293840152602483015273ffffffffffffffffffffffffffffffffffffffff16906334a7c2e790604401600060405180830381600087803b15801561078957600080fd5b505af115801561079d573d6000803e3d6000fd5b505050600084815260116020526040902060060180547fffffffffffffffffffffffffffffffffffffffffffffffffffffffffffff00ff1661010017905550610819565b600083815260116020526040902060060180547fffffffffffffffffffffffffffffffffffffffffffffffffffffffffffff00ff1690555b50506000908152601160209081526040808320600401805484526012835281842084905554835260139091529020439055565b60008281526011602052604090206006015460ff1615156001146108d1576040517f08c379a000000000000000000000000000000000000000000000000000000000815260206004820152601c60248201527f494e56414c49443a20494e56414c49445f44494c5554694f4e5f49440000000060448201526064015b60405180910390fd5b60008281526011602090815260409182902060030154825133815291820185905281830152821515606082015290517fb2f0729497891f6d2fee9abd4a73081173d57e638f38ea17e919746a57020e1e9181900360800190a16000828152601160205260409020600301546109469082611d42565b5050565b60075473ffffffffffffffffffffffffffffffffffffffff1633146109f1576040517f08c379a000000000000000000000000000000000000000000000000000000000815260206004820152602360248201527f554e415554484f52495a45443a2043414e4e4f545f504552464f524d5f41435460448201527f494f4e000000000000000000000000000000000000000000000000000000000060648201526084016108c8565b600780547fffffffffffffffffffffffff00000000000000000000000000000000000000001673ffffffffffffffffffffffffffffffffffffffff92909216919091179055565b600054610100900460ff16610acf576040517f08c379a000000000000000000000000000000000000000000000000000000000815260206004820152602b60248201527f496e697469616c697a61626c653a20636f6e7472616374206973206e6f74206960448201527f6e697469616c697a696e6700000000000000000000000000000000000000000060648201526084016108c8565b6004805473ffffffffffffffffffffffffffffffffffffffff9384167fffffffffffffffffffffffff0000000000000000000000000000000000000000918216811790925560058054821690921790915560088054929093169116179055565b60085473ffffffffffffffffffffffffffffffffffffffff163314610bb0576040517f08c379a000000000000000000000000000000000000000000000000000000000815260206004820152601d60248201527f554e415554484f52495a45443a204f4e4c595f474f5645524e414e434500000060448201526064016108c8565b600155565b73ffffffffffffffffffffffffffffffffffffffff84166000908152600e60205260408120905b8154811015610d6b57600a6000838381548110610bfb57610bfb612960565b6000918252602080832090910154835282019290925260400190206007015460ff16151560011480610c5e575043600a6000848481548110610c3f57610c3f612960565b9060005260206000200154815260200190815260200160002060060154105b15610cf75781548290610c73906001906129be565b81548110610c8357610c83612960565b9060005260206000200154828281548110610ca057610ca0612960565b906000526020600020018190555081805480610cbe57610cbe6129d5565b600190038181906000526020600020016000905590558060001415610ce557506000610d59565b80610cef81612a04565b915050610d59565b600a6000838381548110610d0d57610d0d612960565b9060005260206000200154815260200190815260200160002060050154851415610d5957610d59828281548110610d4657610d46612960565b906000526020600020015487868661202a565b80610d6381612a39565b915050610bdc565b505050505050565b600054610100900460ff1615808015610d935750600054600160ff909116105b80610dad5750303b158015610dad575060005460ff166001145b610e39576040517f08c379a000000000000000000000000000000000000000000000000000000000815260206004820152602e60248201527f496e697469616c697a61626c653a20636f6e747261637420697320616c72656160448201527f647920696e697469616c697a656400000000000000000000000000000000000060648201526084016108c8565b600080547fffffffffffffffffffffffffffffffffffffffffffffffffffffffffffffff001660011790558015610e9757600080547fffffffffffffffffffffffffffffffffffffffffffffffffffffffffffff00ff166101001790555b60075473ffffffffffffffffffffffffffffffffffffffff163314610f3e576040517f08c379a000000000000000000000000000000000000000000000000000000000815260206004820152602360248201527f554e415554484f52495a45443a2043414e4e4f545f504552464f524d5f41435460448201527f494f4e000000000000000000000000000000000000000000000000000000000060648201526084016108c8565b610f488483610a38565b601080547fffffffffffffffffffffffff00000000000000000000000000000000000000001673ffffffffffffffffffffffffffffffffffffffff85161790558015610feb57600080547fffffffffffffffffffffffffffffffffffffffffffffffffffffffffffff00ff169055604051600181527f7f26b83ff96e1f2b6a682f133852f6798a09c465da95921460cefb38474024989060200160405180910390a15b50505050565b6000828152601260205260409020541561108d576040517f08c379a000000000000000000000000000000000000000000000000000000000815260206004820152602160248201527f494e56414c49443a2050454e44494e475f44494c5554494f4e5f52455155455360448201527f540000000000000000000000000000000000000000000000000000000000000060648201526084016108c8565b6005546040517f2d4a03820000000000000000000000000000000000000000000000000000000081526004810185905260009173ffffffffffffffffffffffffffffffffffffffff1690632d4a038290602401602060405180830381865afa1580156110fd573d6000803e3d6000fd5b505050506040513d601f19601f820116820180604052508101906111219190612a72565b6005546040517fd6ca40a70000000000000000000000000000000000000000000000000000000081526004810187905291925060009173ffffffffffffffffffffffffffffffffffffffff9091169063d6ca40a790602401602060405180830381865afa158015611196573d6000803e3d6000fd5b505050506040513d601f19601f820116820180604052508101906111ba9190612a72565b9050838114806111c957508382145b61122f576040517f08c379a000000000000000000000000000000000000000000000000000000000815260206004820152601860248201527f494e56414c49443a20544f4b454e5f4f525f5245434f5244000000000000000060448201526064016108c8565b6005546040517efdd58e0000000000000000000000000000000000000000000000000000000081523360048201526024810186905260009173ffffffffffffffffffffffffffffffffffffffff169062fdd58e90604401602060405180830381865afa1580156112a3573d6000803e3d6000fd5b505050506040513d601f19601f820116820180604052508101906112c79190612a72565b1161132e576040517f08c379a000000000000000000000000000000000000000000000000000000000815260206004820152601860248201527f494e56414c49443a204e4f5f544f4b454e535f464f554e44000000000000000060448201526064016108c8565b6010546040517fbd85b0390000000000000000000000000000000000000000000000000000000081526004810186905260009173ffffffffffffffffffffffffffffffffffffffff169063bd85b039906024016020604051808303816000875af11580156113a0573d6000803e3d6000fd5b505050506040513d601f19601f820116820180604052508101906113c49190612a72565b90506b033b2e3c9fd0803ce80000006113dd8583612a8b565b1115611445576040517f08c379a000000000000000000000000000000000000000000000000000000000815260206004820152601d60248201527f494e56414c49443a20535550504c595f4c494d49545f5245414348454400000060448201526064016108c8565b50600084815260136020526040902054158061147b5750601454600085815260136020526040902054439161147991612a8b565b105b611507576040517f08c379a000000000000000000000000000000000000000000000000000000000815260206004820152603260248201527f494e56414c49443a20574149545f534f4d4554494d455f4245464f52455f4e4560448201527f575f44494c5554494f4e5f52455155455354000000000000000000000000000060648201526084016108c8565b611515600f80546001019055565b6000611520600f5490565b9050600061152f6001856121cc565b905061153c323483612391565b60408051610100810182523380825260208083018b9052828401869052606080840186905260808085018c905260a08086018c9052600160c080880191909152600060e088015287519586529385018e905295840188905290830186905282018a905292810188905290917f1376b246b2110f58fc4ef260841ba0590f4a29c76faca70e92d08f27aca131a8910160405180910390a1600092835260116020908152604093849020825181547fffffffffffffffffffffffff00000000000000000000000000000000000000001673ffffffffffffffffffffffffffffffffffffffff909116178155908201516001820155928101516002840155606081015160038401556080810151600484015560a0810151600584015560c08101516006909301805460e0909201517fffffffffffffffffffffffffffffffffffffffffffffffffffffffffffff00009092169315157fffffffffffffffffffffffffffffffffffffffffffffffffffffffffffff00ff16939093176101009115159190910217909155505050505050565b60085473ffffffffffffffffffffffffffffffffffffffff16331461174b576040517f08c379a000000000000000000000000000000000000000000000000000000000815260206004820152601d60248201527f554e415554484f52495a45443a204f4e4c595f474f5645524e414e434500000060448201526064016108c8565b600355565b60085473ffffffffffffffffffffffffffffffffffffffff1633146117d1576040517f08c379a000000000000000000000000000000000000000000000000000000000815260206004820152601d60248201527f554e415554484f52495a45443a204f4e4c595f474f5645524e414e434500000060448201526064016108c8565b600255565b6000818152600a6020526040812060070154819062010000900460ff16151560011461185e576040517f08c379a000000000000000000000000000000000000000000000000000000000815260206004820152601960248201527f494e56414c49443a2042414c4c4f545f4e4f545f464f554e440000000000000060448201526064016108c8565b6000838152600a602052604090206006015443116118d8576040517f08c379a000000000000000000000000000000000000000000000000000000000815260206004820152601d60248201527f494e56414c49443a20564f54494e475f54494d455f4e4f545f4f56455200000060448201526064016108c8565b6000838152600a602052604090206007015460ff1615611954576040517f08c379a000000000000000000000000000000000000000000000000000000000815260206004820181905260248201527f494e56414c49443a20524553554c545f414c52454144595f4445434c4152454460448201526064016108c8565b6000838152600a602052604080822060018082015460038301546007840180547fffffffffffffffffffffffffffffffffffffffffffffffffffffffffffffff0016909317909255600580549084015494517f036c22ad000000000000000000000000000000000000000000000000000000008152939591949293919273ffffffffffffffffffffffffffffffffffffffff9091169163036c22ad91611a009160040190815260200190565b602060405180830381865afa158015611a1d573d6000803e3d6000fd5b505050506040513d601f19601f82011682018060405250810190611a419190612a72565b9050600060648060035484611a569190612aa3565b611a609190612ae0565b611a6a9190612ae0565b905080611a778585612a8b565b1115611ae4578315611ad35760006064611a918587612a8b565b611a9c906042612aa3565b611aa69190612ae0565b905080851115611ac157506001988998509650505050505050565b50600098600198509650505050505050565b506000976001975095505050505050565b5060009788975095505050505050565b6000818152600d602052604090206003015460ff610100909104161515600114611b7a576040517f08c379a000000000000000000000000000000000000000000000000000000000815260206004820152600d60248201527f4445505f4e4f545f45584953540000000000000000000000000000000000000060448201526064016108c8565b6000818152600d602052604090206003015460ff1615611bf6576040517f08c379a000000000000000000000000000000000000000000000000000000000815260206004820152601360248201527f4445505f414c52454144595f434c41494d45440000000000000000000000000060448201526064016108c8565b6000818152600d60205260408082208054600290910154915173ffffffffffffffffffffffffffffffffffffffff90911691908381818185875af1925050503d8060008114611c61576040519150601f19603f3d011682016040523d82523d6000602084013e611c66565b606091505b5050905080611cd1576040517f08c379a000000000000000000000000000000000000000000000000000000000815260206004820152600d60248201527f494e565f4445505f434c41494d0000000000000000000000000000000000000060448201526064016108c8565b6000828152600d60209081526040918290208054600290910154835173ffffffffffffffffffffffffffffffffffffffff9092168252918101859052918201527f6b1069552f63b401b74bc71e75594d0a8bc61f7a42998e0f201b78f9aa600d329060600160405180910390a15050565b6000828152600a60205260409020600701548290339062010000900460ff161515600114611dcc576040517f08c379a000000000000000000000000000000000000000000000000000000000815260206004820152601960248201527f494e56414c49443a2042414c4c4f545f4e4f545f464f554e440000000000000060448201526064016108c8565b6000828152600a60205260409020600601544310611e46576040517f08c379a000000000000000000000000000000000000000000000000000000000815260206004820152601960248201527f494e56414c49443a20564f54494e475f54494d455f4f5645520000000000000060448201526064016108c8565b6000828152600b6020908152604080832073ffffffffffffffffffffffffffffffffffffffff8516845290915290205460ff1615611ee0576040517f08c379a000000000000000000000000000000000000000000000000000000000815260206004820152601660248201527f494e56414c49443a20414c52454144595f564f5445440000000000000000000060448201526064016108c8565b6000848152600a60205260409020600701548490610100900460ff1615611f8a576000818152600b6020908152604080832032845290915290205460ff1615611f85576040517f08c379a000000000000000000000000000000000000000000000000000000000815260206004820152601660248201527f494e56414c49443a20414c52454144595f564f5445440000000000000000000060448201526064016108c8565b612018565b6000818152600a602052604090205473ffffffffffffffffffffffffffffffffffffffff16321415612018576040517f08c379a000000000000000000000000000000000000000000000000000000000815260206004820152601f60248201527f554e415554484f52495a45443a204f574e45525f43414e4e4f545f564f54450060448201526064016108c8565b612023858532612563565b5050505050565b6000848152600b6020908152604080832073ffffffffffffffffffffffffffffffffffffffff8716845290915290205460ff1615156001146120ee576040517f08c379a000000000000000000000000000000000000000000000000000000000815260206004820152602560248201527f494e56414c49443a20494e5445524e414c3a20555345525f4841535f4e4f545f60448201527f564f54454400000000000000000000000000000000000000000000000000000060648201526084016108c8565b6000848152600c6020908152604080832073ffffffffffffffffffffffffffffffffffffffff8716845290915290205460ff168015612179576000858152600a6020526040812060010180548592906121489084906129be565b90915550506000858152600a60205260408120600101805484929061216e908490612a8b565b909155506120239050565b6000858152600a60205260408120600301805485929061219a9084906129be565b90915550506000858152600a6020526040812060030180548492906121c0908490612a8b565b90915550505050505050565b60098054600091826121dd83612a39565b919050555060006040518061014001604052803273ffffffffffffffffffffffffffffffffffffffff168152602001600081526020016000815260200160008152602001600081526020018481526020016002544361223c9190612a8b565b81526000602080830182905296151560408084019190915260016060938401819052600980548452600a8a5292829020855181547fffffffffffffffffffffffff00000000000000000000000000000000000000001673ffffffffffffffffffffffffffffffffffffffff909116178155988501519089015583015160028801559082015160038701556080820151600487015560a0820151600587015560c0820151600687015560e08201516007909601805461010080850151610120909501517fffffffffffffffffffffffffffffffffffffffffffffffffffffffffffff00009092169815157fffffffffffffffffffffffffffffffffffffffffffffffffffffffffffff00ff1698909817931515909702929092177fffffffffffffffffffffffffffffffffffffffffffffffffffffffffff00ffff16620100009615159690960295909517905550509054919050565b60015482146123fc576040517f08c379a000000000000000000000000000000000000000000000000000000000815260206004820152600760248201527f494e565f4445500000000000000000000000000000000000000000000000000060448201526064016108c8565b6040805160a0808201835273ffffffffffffffffffffffffffffffffffffffff861680835260208084018690526001805485870181905260006060808801829052608080890185905289519687529486018a9052858901929092529084015290820152925191927f58ac581930e3170185d9c86e70eceabd7254c9eee2c1df3b76e38f030645ec3d929081900390910190a16000918252600d6020908152604092839020825181547fffffffffffffffffffffffff00000000000000000000000000000000000000001673ffffffffffffffffffffffffffffffffffffffff9091161781559082015160018201559181015160028301556060810151600390920180546080909201517fffffffffffffffffffffffffffffffffffffffffffffffffffffffffffff00009092169215157fffffffffffffffffffffffffffffffffffffffffffffffffffffffffffff00ff1692909217610100911515919091021790555050565b6000838152600a60209081526040808320815161014081018352815473ffffffffffffffffffffffffffffffffffffffff908116825260018301549482019490945260028201548184015260038201546060820152600480830154608083015260058084015460a08401819052600685015460c085015260079094015460ff808216151560e08601526101008083048216151590860152620100009091041615156101208401525493517efdd58e000000000000000000000000000000000000000000000000000000008152919594939093169262fdd58e926126699288920173ffffffffffffffffffffffffffffffffffffffff929092168252602082015260400190565b602060405180830381865afa158015612686573d6000803e3d6000fd5b505050506040513d601f19601f820116820180604052508101906126aa9190612a72565b90508315612705576000858152600a6020526040812060010180548392906126d3908490612a8b565b90915550506000858152600a602052604081206002018054600192906126fa908490612a8b565b909155506127539050565b6000858152600a602052604081206003018054839290612726908490612a8b565b90915550506000858152600a6020526040812060040180546001929061274d908490612a8b565b90915550505b50506000838152600b6020908152604080832073ffffffffffffffffffffffffffffffffffffffff94909416808452938252808320805460017fffffffffffffffffffffffffffffffffffffffffffffffffffffffffffffff009182168117909255878552600c8452828520958552948352818420805490951695151595909517909355600e8152918120805493840181558152200155565b6000602082840312156127fe57600080fd5b5035919050565b6000806040838503121561281857600080fd5b823591506020830135801515811461282f57600080fd5b809150509250929050565b803573ffffffffffffffffffffffffffffffffffffffff8116811461285e57600080fd5b919050565b60006020828403121561287557600080fd5b61287e8261283a565b9392505050565b6000806040838503121561289857600080fd5b6128a18361283a565b91506128af6020840161283a565b90509250929050565b600080600080608085870312156128ce57600080fd5b6128d78561283a565b966020860135965060408601359560600135945092505050565b60008060006060848603121561290657600080fd5b61290f8461283a565b925061291d6020850161283a565b915061292b6040850161283a565b90509250925092565b60008060006060848603121561294957600080fd5b505081359360208301359350604090920135919050565b7f4e487b7100000000000000000000000000000000000000000000000000000000600052603260045260246000fd5b7f4e487b7100000000000000000000000000000000000000000000000000000000600052601160045260246000fd5b6000828210156129d0576129d061298f565b500390565b7f4e487b7100000000000000000000000000000000000000000000000000000000600052603160045260246000fd5b600081612a1357612a1361298f565b507fffffffffffffffffffffffffffffffffffffffffffffffffffffffffffffffff0190565b60007fffffffffffffffffffffffffffffffffffffffffffffffffffffffffffffffff821415612a6b57612a6b61298f565b5060010190565b600060208284031215612a8457600080fd5b5051919050565b60008219821115612a9e57612a9e61298f565b500190565b6000817fffffffffffffffffffffffffffffffffffffffffffffffffffffffffffffffff0483118215151615612adb57612adb61298f565b500290565b600082612b16577f4e487b7100000000000000000000000000000000000000000000000000000000600052601260045260246000fd5b50049056fea2646970667358221220a9a696dc4c91349bae6537b7cd7f5207a4317418534c452ab3b166799e9966d364736f6c634300080c0033",
  "immutableReferences": {},
  "source": "// SPDX-License-Identifier: MIT\npragma solidity ^0.8.0;\n\nimport \"./Voting/BaseVotingContract.sol\";\nimport \"./interface/ITreasuryCore.sol\";\nimport \"@openzeppelin/contracts/utils/Counters.sol\";\n\ncontract DilutionContract is BaseVotingContract {\n    /// @dev This will contain the data for the dilution request\n    /// @param requester the person who has requested for token dilution\n    /// @param recordId This is the id of the record that is linked to this ballot\n    /// @param dilutionId This is the id of the dilution structure that is linked to this ballot\n    /// @param ballotId Id of the ballot where voting is stored\n    /// @param tokenId token that is to be minted\n    /// @param amount the amount of tokens to be minted\n    /// @param isPresent this is to check if the dilution request is present or not\n    /// @param isAccepted this denotes the status of the request that is if the request was accepted or rejected\n    struct DilutionRequest {\n        address requester;\n        uint256 recordId;\n        uint256 dilutionId;\n        uint256 ballotId;\n        uint256 tokenId;\n        uint256 amount;\n        bool isPresent;\n        bool isAccepted;\n    }\n\n    /// @dev This is when a dilution request is created.\n    /// @param requester the person who has requested for token dilution\n    /// @param recordId This is the id of the record that is linked to this ballot\n    /// @param dilutionId This is the id of the dilution structure that is linked to this ballot\n    /// @param ballotId Id of the ballot where voting is stored\n    /// @param tokenId token that is to be minted\n    /// @param amount the amount of tokens to be minted\n    event DilutionRequestCreated(\n        address requester,\n        uint256 recordId,\n        uint256 dilutionId,\n        uint256 ballotId,\n        uint256 tokenId,\n        uint256 amount\n    );\n\n    /// @dev This is when a vote is given by user.\n    /// @param voter Address of the voter\n    /// @param dilutionId This is the id of the dilution structure that is linked to this ballot\n    /// @param ballotId Id of the ballot where voting is stored\n    /// @param vote State of vote : true for yes and false for No\n    event DilutionVoting(\n        address voter,\n        uint256 dilutionId,\n        uint256 ballotId,\n        bool vote\n    );\n\n    /// @dev this event is generated when result of a ballot is declared\n    /// @param dilutionId This is the id of dilution request\n    /// @param tokenId This is the id of the contribution that is linked to this ballot\n    /// @param ballotId this is the ballot Id for which result is declared\n    /// @param result this is the status of the result,\n    /// @param minTurnOut this status indicates if minimum amount of user showed up for voting\n    /// either true if user won that is he received more than 66% of votes or false if user lost\n    event DilutionResult(\n        uint256 dilutionId,\n        uint256 tokenId,\n        uint256 ballotId,\n        bool result,\n        bool minTurnOut\n    );\n\n    using Counters for Counters.Counter;\n    Counters.Counter private _dilutionIds;\n    ITreasuryCore public treasuryCoreContract;\n\n    // This mapping contains data with respect to dilution id\n    // _dilutionId => dilutionData\n    mapping(uint256 => DilutionRequest) dilutionRequestMap;\n\n    // This mapping tracks if any request for dilution is active or not\n    // tokenId => id of the current dilution request, if 0 then there are no active dilution request\n    mapping(uint256 => uint256) public activeDilutionRequestMap;\n\n    // This mapping contains the blocknumber when last request for dilution request result of distributed\n    // tokenId => blocknumber when last dilution result was declared for this token\n    mapping(uint256 => uint256) public lastDilutionResultMap;\n\n    uint256 public REQUEST_INTERVAL;\n\n    constructor(\n        uint8 votingInterval,\n        uint256 requestInterval,\n        address owner\n    ) BaseVotingContract(owner) {\n        VOTING_BLOCK_PERIOD = votingInterval;\n        REQUEST_INTERVAL = requestInterval;\n    }\n\n    /// @dev This is to set the address of the contracts\n    /// @param newTreasuryContractAddress This is the address of new treasury contract\n    /// @param newTreasuryCoreContractAddress This is the address of new treasury core contract\n    /// @param newGovernanceContractAddress This is the address for the governance contract\n    function initialize(\n        address newTreasuryContractAddress,\n        address newTreasuryCoreContractAddress,\n        address newGovernanceContractAddress\n    ) public initializer _ownerOnly {\n        BaseVotingContract.initialize(\n            newTreasuryContractAddress,\n            newGovernanceContractAddress\n        );\n        treasuryCoreContract = ITreasuryCore(newTreasuryCoreContractAddress);\n    }\n\n    /// @dev This function will create a new contribution voting ballot\n    /// @param recordId this is the id of the record whose dilution request is to be created\n    /// @param tokenId the token that needs to be diluted\n    /// @param amount the amount to be diluted\n    function createDilutionRequest(\n        uint256 recordId,\n        uint256 tokenId,\n        uint256 amount\n    ) public payable {\n        require(\n            activeDilutionRequestMap[tokenId] == 0,\n            \"INVALID: PENDING_DILUTION_REQUEST\"\n        );\n\n        uint256 commTokenId = treasuryContract.getCommunityTokenId(recordId);\n        uint256 govTokenId = treasuryContract.getGovernanceTokenId(recordId);\n        {\n            require(\n                govTokenId == tokenId || commTokenId == tokenId,\n                \"INVALID: TOKEN_OR_RECORD\"\n            );\n\n            require(\n                treasuryContract.balanceOf(msg.sender, tokenId) > 0,\n                \"INVALID: NO_TOKENS_FOUND\"\n            );\n\n            uint256 totalSupply = treasuryCoreContract.totalSupply(tokenId);\n            require(\n                totalSupply + amount <= 1 * 10 ** 9 * 1 ether, //The token supply created shouldn't be more than 1 billion\n                \"INVALID: SUPPLY_LIMIT_REACHED\"\n            );\n        }\n        // We need to check if there were any previous request made,\n        // and if any request are made then has sufficient time passed or not.\n        // If the block number is 0 then it means that no request has been created\n        // err: You need to wait sometime for you create new dilution request\n        require(\n            lastDilutionResultMap[tokenId] == 0 ||\n                lastDilutionResultMap[tokenId] + REQUEST_INTERVAL <\n                block.number,\n            \"INVALID: WAIT_SOMETIME_BEFORE_NEW_DILUTION_REQUEST\"\n        );\n\n        _dilutionIds.increment();\n        uint256 dilutionId = _dilutionIds.current();\n        uint256 ballotId = _createVoting(true, commTokenId);\n        _createDeposit(tx.origin, msg.value, ballotId);\n\n        DilutionRequest memory dilutionRequest = DilutionRequest({\n            requester: msg.sender,\n            recordId: recordId,\n            dilutionId: dilutionId,\n            ballotId: ballotId,\n            tokenId: tokenId,\n            amount: amount,\n            isPresent: true,\n            isAccepted: false\n        });\n\n        emit DilutionRequestCreated({\n            requester: dilutionRequest.requester,\n            recordId: dilutionRequest.recordId,\n            dilutionId: dilutionRequest.dilutionId,\n            ballotId: dilutionRequest.ballotId,\n            tokenId: dilutionRequest.tokenId,\n            amount: dilutionRequest.amount\n        });\n\n        dilutionRequestMap[dilutionId] = dilutionRequest;\n    }\n\n    /// @dev This function is called by any user to cast vote\n    /// @param dilutionId this is the id of the dilution request for which user is voting\n    /// @param vote this is the state of the vote, if true than it means the vote is in favour of the ballot\n    function castVote(uint256 dilutionId, bool vote) public {\n        require(\n            dilutionRequestMap[dilutionId].isPresent == true,\n            \"INVALID: INVALID_DILUTiON_ID\"\n        );\n\n        emit DilutionVoting({\n            dilutionId: dilutionId,\n            ballotId: dilutionRequestMap[dilutionId].ballotId,\n            voter: msg.sender,\n            vote: vote\n        });\n\n        super._castVote(dilutionRequestMap[dilutionId].ballotId, vote);\n    }\n\n    /// @dev This function can be called from external source and also from within the contract\n    /// @param dilutionId this is the id of the contribution to which the winner is to be decleared\n    function declareWinner(uint256 dilutionId) external {\n        (bool result, bool minTurnOut) = _declareWinner(\n            dilutionRequestMap[dilutionId].ballotId\n        );\n        _releaseDeposit(dilutionRequestMap[dilutionId].ballotId);\n\n        emit DilutionResult({\n            dilutionId: dilutionId,\n            tokenId: dilutionRequestMap[dilutionId].tokenId,\n            ballotId: dilutionRequestMap[dilutionId].ballotId,\n            result: result,\n            minTurnOut: minTurnOut\n        });\n\n        if (result) {\n            //Transfer the reward amount to user\n            treasuryContract.mintTokens(\n                dilutionRequestMap[dilutionId].tokenId,\n                dilutionRequestMap[dilutionId].amount\n            );\n\n            dilutionRequestMap[dilutionId].isAccepted = true;\n        } else {\n            dilutionRequestMap[dilutionId].isAccepted = false;\n        }\n        // reset the active dilution to 0\n        activeDilutionRequestMap[dilutionRequestMap[dilutionId].tokenId] = 0;\n        lastDilutionResultMap[dilutionRequestMap[dilutionId].tokenId] = block\n            .number;\n    }\n}\n",
  "sourcePath": "/Users/a1/Desktop/Office/projects/CrowdRecords/Contracts/contracts/DilutionContract.sol",
  "compiler": {
    "name": "solc",
    "version": "0.8.12+commit.f00d7308.Emscripten.clang"
  },
  "schemaVersion": "3.4.6",
  "updatedAt": "2023-07-12T07:16:53.139Z",
  "networkType": "ethereum",
  "devdoc": {
    "events": {
      "DilutionRequestCreated(address,uint256,uint256,uint256,uint256,uint256)": {
        "details": "This is when a dilution request is created.",
        "params": {
          "amount": "the amount of tokens to be minted",
          "ballotId": "Id of the ballot where voting is stored",
          "dilutionId": "This is the id of the dilution structure that is linked to this ballot",
          "recordId": "This is the id of the record that is linked to this ballot",
          "requester": "the person who has requested for token dilution",
          "tokenId": "token that is to be minted"
        }
      },
      "DilutionResult(uint256,uint256,uint256,bool,bool)": {
        "details": "this event is generated when result of a ballot is declared",
        "params": {
          "ballotId": "this is the ballot Id for which result is declared",
          "dilutionId": "This is the id of dilution request",
          "minTurnOut": "this status indicates if minimum amount of user showed up for voting either true if user won that is he received more than 66% of votes or false if user lost",
          "result": "this is the status of the result,",
          "tokenId": "This is the id of the contribution that is linked to this ballot"
        }
      },
      "DilutionVoting(address,uint256,uint256,bool)": {
        "details": "This is when a vote is given by user.",
        "params": {
          "ballotId": "Id of the ballot where voting is stored",
          "dilutionId": "This is the id of the dilution structure that is linked to this ballot",
          "vote": "State of vote : true for yes and false for No",
          "voter": "Address of the voter"
        }
      }
    },
    "kind": "dev",
    "methods": {
      "_handleUserTokenTransfers(address,uint256,uint256,uint256)": {
        "details": "This function will be called when either user is transferring the tokens to other account, or is receiving tokens from other tokens.",
        "params": {
          "newBalance": "this is the new balance of the user that is after the transfer",
          "previousBalance": "this is the old balance of the user",
          "user": "address of the user whose balance is being changed"
        }
      },
      "castVote(uint256,bool)": {
        "details": "This function is called by any user to cast vote",
        "params": {
          "dilutionId": "this is the id of the dilution request for which user is voting",
          "vote": "this is the state of the vote, if true than it means the vote is in favour of the ballot"
        }
      },
      "createDilutionRequest(uint256,uint256,uint256)": {
        "details": "This function will create a new contribution voting ballot",
        "params": {
          "amount": "the amount to be diluted",
          "recordId": "this is the id of the record whose dilution request is to be created",
          "tokenId": "the token that needs to be diluted"
        }
      },
      "declareWinner(uint256)": {
        "details": "This function can be called from external source and also from within the contract",
        "params": {
          "dilutionId": "this is the id of the contribution to which the winner is to be decleared"
        }
      },
      "initialize(address,address)": {
        "details": "This function sets the treasury Contract address and the governance address",
        "params": {
          "newGovernanceContractAddress": "This is the address for the governance contract",
          "newTreasuryContractAddress": "This is the new address of treasury contract"
        }
      },
      "initialize(address,address,address)": {
        "details": "This is to set the address of the contracts",
        "params": {
          "newGovernanceContractAddress": "This is the address for the governance contract",
          "newTreasuryContractAddress": "This is the address of new treasury contract",
          "newTreasuryCoreContractAddress": "This is the address of new treasury core contract"
        }
      },
      "setDepositAmount(uint256)": {
        "details": "This function sets the VOTING_DEPOSIT percentage",
        "params": {
          "depositAmount": "This is the new deposit amount needed for creating ballot"
        }
      },
      "setMinTurnOut(uint256)": {
        "details": "This function sets the MIN_TURN_OUT percentage",
        "params": {
          "minTurnOut": "This is the new turnout percentage value"
        }
      },
      "setOwnerAddress(address)": {
        "details": "This function sets the owner address",
        "params": {
          "ownerAddress": "This is the address of the owner"
        }
      },
      "setVotingPeriod(uint256)": {
        "details": "This function sets the VOTING_BLOCK_PERIOD percentage",
        "params": {
          "votingPeriod": "This is the voting period"
        }
      }
    },
    "version": 1
  },
  "userdoc": {
    "kind": "user",
    "methods": {},
    "version": 1
  }
}