{
  "contractName": "RecordsVotingContract",
  "abi": [
    {
      "inputs": [
        {
          "internalType": "address",
          "name": "owner",
          "type": "address"
        }
      ],
      "stateMutability": "nonpayable",
      "type": "constructor"
    },
    {
      "anonymous": false,
      "inputs": [
        {
          "indexed": false,
          "internalType": "address",
          "name": "owner",
          "type": "address"
        },
        {
          "indexed": false,
          "internalType": "uint256",
          "name": "ballotId",
          "type": "uint256"
        },
        {
          "indexed": false,
          "internalType": "uint256",
          "name": "depositAmount",
          "type": "uint256"
        }
      ],
      "name": "DepositClaimed",
      "type": "event"
    },
    {
      "anonymous": false,
      "inputs": [
        {
          "indexed": false,
          "internalType": "address",
          "name": "owner",
          "type": "address"
        },
        {
          "indexed": false,
          "internalType": "uint256",
          "name": "ballotId",
          "type": "uint256"
        },
        {
          "indexed": false,
          "internalType": "uint256",
          "name": "depositAmount",
          "type": "uint256"
        },
        {
          "indexed": false,
          "internalType": "bool",
          "name": "isClaimed",
          "type": "bool"
        },
        {
          "indexed": false,
          "internalType": "bool",
          "name": "isPresent",
          "type": "bool"
        }
      ],
      "name": "DepositCreated",
      "type": "event"
    },
    {
      "anonymous": false,
      "inputs": [
        {
          "indexed": false,
          "internalType": "uint8",
          "name": "version",
          "type": "uint8"
        }
      ],
      "name": "Initialized",
      "type": "event"
    },
    {
      "anonymous": false,
      "inputs": [
        {
          "indexed": false,
          "internalType": "uint256",
          "name": "versionRequestId",
          "type": "uint256"
        },
        {
          "indexed": false,
          "internalType": "uint256",
          "name": "rewardTokenId",
          "type": "uint256"
        },
        {
          "indexed": false,
          "internalType": "uint256",
          "name": "rewardAmount",
          "type": "uint256"
        },
        {
          "indexed": false,
          "internalType": "address",
          "name": "userAddress",
          "type": "address"
        }
      ],
      "name": "NewTokenClaimed",
      "type": "event"
    },
    {
      "anonymous": false,
      "inputs": [
        {
          "indexed": false,
          "internalType": "uint256",
          "name": "versionReqId",
          "type": "uint256"
        },
        {
          "indexed": false,
          "internalType": "uint256",
          "name": "tokenId",
          "type": "uint256"
        },
        {
          "indexed": false,
          "internalType": "uint256",
          "name": "ballotId",
          "type": "uint256"
        },
        {
          "indexed": false,
          "internalType": "bool",
          "name": "result",
          "type": "bool"
        },
        {
          "indexed": false,
          "internalType": "bool",
          "name": "minTurnOut",
          "type": "bool"
        },
        {
          "indexed": false,
          "internalType": "uint256",
          "name": "newRecordId",
          "type": "uint256"
        }
      ],
      "name": "NewVersionRequestResult",
      "type": "event"
    },
    {
      "anonymous": false,
      "inputs": [
        {
          "indexed": false,
          "internalType": "uint256",
          "name": "versionRequestId",
          "type": "uint256"
        },
        {
          "indexed": false,
          "internalType": "uint256",
          "name": "totalSupplyWei",
          "type": "uint256"
        },
        {
          "indexed": false,
          "internalType": "uint256",
          "name": "rewardAmountWei",
          "type": "uint256"
        },
        {
          "indexed": false,
          "internalType": "uint256",
          "name": "tokenId",
          "type": "uint256"
        },
        {
          "indexed": false,
          "internalType": "uint256",
          "name": "rewardTokenId",
          "type": "uint256"
        },
        {
          "indexed": false,
          "internalType": "uint256",
          "name": "rewardPerTokenWei",
          "type": "uint256"
        },
        {
          "indexed": false,
          "internalType": "uint256",
          "name": "snapshotId",
          "type": "uint256"
        }
      ],
      "name": "NewVersionTokenDistribution",
      "type": "event"
    },
    {
      "anonymous": false,
      "inputs": [
        {
          "indexed": false,
          "internalType": "address",
          "name": "voter",
          "type": "address"
        },
        {
          "indexed": false,
          "internalType": "uint256",
          "name": "versionRequestId",
          "type": "uint256"
        },
        {
          "indexed": false,
          "internalType": "uint256",
          "name": "ballotId",
          "type": "uint256"
        },
        {
          "indexed": false,
          "internalType": "bool",
          "name": "vote",
          "type": "bool"
        }
      ],
      "name": "NewVersionVoting",
      "type": "event"
    },
    {
      "anonymous": false,
      "inputs": [
        {
          "indexed": false,
          "internalType": "address",
          "name": "requester",
          "type": "address"
        },
        {
          "indexed": false,
          "internalType": "uint256",
          "name": "versionRequestId",
          "type": "uint256"
        },
        {
          "indexed": false,
          "internalType": "uint256",
          "name": "ballotId",
          "type": "uint256"
        },
        {
          "indexed": false,
          "internalType": "uint256",
          "name": "createdAt",
          "type": "uint256"
        }
      ],
      "name": "NewVersionVotingBallotCreated",
      "type": "event"
    },
    {
      "anonymous": false,
      "inputs": [
        {
          "indexed": false,
          "internalType": "uint256",
          "name": "requestId",
          "type": "uint256"
        },
        {
          "components": [
            {
              "internalType": "string",
              "name": "name",
              "type": "string"
            },
            {
              "internalType": "string",
              "name": "image",
              "type": "string"
            },
            {
              "internalType": "uint256",
              "name": "seedId",
              "type": "uint256"
            },
            {
              "internalType": "uint256",
              "name": "parentId",
              "type": "uint256"
            },
            {
              "internalType": "address",
              "name": "owner",
              "type": "address"
            },
            {
              "internalType": "string",
              "name": "recordCategory",
              "type": "string"
            },
            {
              "internalType": "uint256",
              "name": "creationDate",
              "type": "uint256"
            },
            {
              "internalType": "bool",
              "name": "isPresent",
              "type": "bool"
            }
          ],
          "indexed": false,
          "internalType": "struct RecordsContract.RecordStruct",
          "name": "recordData",
          "type": "tuple"
        },
        {
          "components": [
            {
              "internalType": "uint256",
              "name": "totalSupply",
              "type": "uint256"
            },
            {
              "internalType": "uint256",
              "name": "oldContributorShare",
              "type": "uint256"
            },
            {
              "internalType": "uint256",
              "name": "userBalance",
              "type": "uint256"
            },
            {
              "internalType": "string",
              "name": "symbol",
              "type": "string"
            },
            {
              "internalType": "string",
              "name": "image",
              "type": "string"
            }
          ],
          "indexed": false,
          "internalType": "struct RecordsVotingContract.NewVersionTokenStruct",
          "name": "governanceToken",
          "type": "tuple"
        },
        {
          "components": [
            {
              "internalType": "uint256",
              "name": "totalSupply",
              "type": "uint256"
            },
            {
              "internalType": "uint256",
              "name": "oldContributorShare",
              "type": "uint256"
            },
            {
              "internalType": "uint256",
              "name": "userBalance",
              "type": "uint256"
            },
            {
              "internalType": "string",
              "name": "symbol",
              "type": "string"
            },
            {
              "internalType": "string",
              "name": "image",
              "type": "string"
            }
          ],
          "indexed": false,
          "internalType": "struct RecordsVotingContract.NewVersionTokenStruct",
          "name": "communityToken",
          "type": "tuple"
        },
        {
          "indexed": false,
          "internalType": "uint256[]",
          "name": "contributionIds",
          "type": "uint256[]"
        },
        {
          "indexed": false,
          "internalType": "address",
          "name": "requester",
          "type": "address"
        },
        {
          "indexed": false,
          "internalType": "uint256",
          "name": "oldVersionId",
          "type": "uint256"
        },
        {
          "indexed": false,
          "internalType": "uint256",
          "name": "tokenId",
          "type": "uint256"
        },
        {
          "indexed": false,
          "internalType": "uint256",
          "name": "ballotId",
          "type": "uint256"
        }
      ],
      "name": "VersionRequest",
      "type": "event"
    },
    {
      "inputs": [],
      "name": "GOVERNANCE",
      "outputs": [
        {
          "internalType": "address",
          "name": "",
          "type": "address"
        }
      ],
      "stateMutability": "view",
      "type": "function",
      "constant": true
    },
    {
      "inputs": [],
      "name": "MIN_TURNOUT_PERCENT",
      "outputs": [
        {
          "internalType": "uint256",
          "name": "",
          "type": "uint256"
        }
      ],
      "stateMutability": "view",
      "type": "function",
      "constant": true
    },
    {
      "inputs": [],
      "name": "OWNER",
      "outputs": [
        {
          "internalType": "address",
          "name": "",
          "type": "address"
        }
      ],
      "stateMutability": "view",
      "type": "function",
      "constant": true
    },
    {
      "inputs": [],
      "name": "RECORDS_CONTRACT_ADDRESS",
      "outputs": [
        {
          "internalType": "address",
          "name": "",
          "type": "address"
        }
      ],
      "stateMutability": "view",
      "type": "function",
      "constant": true
    },
    {
      "inputs": [],
      "name": "TREASURY_CONTRACT_ADDRESS",
      "outputs": [
        {
          "internalType": "address",
          "name": "",
          "type": "address"
        }
      ],
      "stateMutability": "view",
      "type": "function",
      "constant": true
    },
    {
      "inputs": [],
      "name": "TREASURY_CORE_CONTRACT_ADDRESS",
      "outputs": [
        {
          "internalType": "address",
          "name": "",
          "type": "address"
        }
      ],
      "stateMutability": "view",
      "type": "function",
      "constant": true
    },
    {
      "inputs": [],
      "name": "TREASURY_HUB_ADDRESS",
      "outputs": [
        {
          "internalType": "address",
          "name": "",
          "type": "address"
        }
      ],
      "stateMutability": "view",
      "type": "function",
      "constant": true
    },
    {
      "inputs": [],
      "name": "VOTING_BLOCK_PERIOD",
      "outputs": [
        {
          "internalType": "uint256",
          "name": "",
          "type": "uint256"
        }
      ],
      "stateMutability": "view",
      "type": "function",
      "constant": true
    },
    {
      "inputs": [],
      "name": "VOTING_DEPOSIT",
      "outputs": [
        {
          "internalType": "uint256",
          "name": "",
          "type": "uint256"
        }
      ],
      "stateMutability": "view",
      "type": "function",
      "constant": true
    },
    {
      "inputs": [
        {
          "internalType": "address",
          "name": "user",
          "type": "address"
        },
        {
          "internalType": "uint256",
          "name": "tokenId",
          "type": "uint256"
        },
        {
          "internalType": "uint256",
          "name": "previousBalance",
          "type": "uint256"
        },
        {
          "internalType": "uint256",
          "name": "newBalance",
          "type": "uint256"
        }
      ],
      "name": "_handleUserTokenTransfers",
      "outputs": [],
      "stateMutability": "nonpayable",
      "type": "function"
    },
    {
      "inputs": [
        {
          "internalType": "uint256",
          "name": "",
          "type": "uint256"
        }
      ],
      "name": "depositMap",
      "outputs": [
        {
          "internalType": "address",
          "name": "owner",
          "type": "address"
        },
        {
          "internalType": "uint256",
          "name": "ballotId",
          "type": "uint256"
        },
        {
          "internalType": "uint256",
          "name": "depositAmount",
          "type": "uint256"
        },
        {
          "internalType": "bool",
          "name": "isClaimed",
          "type": "bool"
        },
        {
          "internalType": "bool",
          "name": "isPresent",
          "type": "bool"
        }
      ],
      "stateMutability": "view",
      "type": "function",
      "constant": true
    },
    {
      "inputs": [
        {
          "internalType": "uint256",
          "name": "",
          "type": "uint256"
        }
      ],
      "name": "newVersionRequestMap",
      "outputs": [
        {
          "components": [
            {
              "internalType": "string",
              "name": "name",
              "type": "string"
            },
            {
              "internalType": "string",
              "name": "image",
              "type": "string"
            },
            {
              "internalType": "uint256",
              "name": "seedId",
              "type": "uint256"
            },
            {
              "internalType": "uint256",
              "name": "parentId",
              "type": "uint256"
            },
            {
              "internalType": "address",
              "name": "owner",
              "type": "address"
            },
            {
              "internalType": "string",
              "name": "recordCategory",
              "type": "string"
            },
            {
              "internalType": "uint256",
              "name": "creationDate",
              "type": "uint256"
            },
            {
              "internalType": "bool",
              "name": "isPresent",
              "type": "bool"
            }
          ],
          "internalType": "struct RecordsContract.RecordStruct",
          "name": "recordData",
          "type": "tuple"
        },
        {
          "components": [
            {
              "internalType": "uint256",
              "name": "totalSupply",
              "type": "uint256"
            },
            {
              "internalType": "uint256",
              "name": "oldContributorShare",
              "type": "uint256"
            },
            {
              "internalType": "uint256",
              "name": "userBalance",
              "type": "uint256"
            },
            {
              "internalType": "string",
              "name": "symbol",
              "type": "string"
            },
            {
              "internalType": "string",
              "name": "image",
              "type": "string"
            }
          ],
          "internalType": "struct RecordsVotingContract.NewVersionTokenStruct",
          "name": "governanceToken",
          "type": "tuple"
        },
        {
          "components": [
            {
              "internalType": "uint256",
              "name": "totalSupply",
              "type": "uint256"
            },
            {
              "internalType": "uint256",
              "name": "oldContributorShare",
              "type": "uint256"
            },
            {
              "internalType": "uint256",
              "name": "userBalance",
              "type": "uint256"
            },
            {
              "internalType": "string",
              "name": "symbol",
              "type": "string"
            },
            {
              "internalType": "string",
              "name": "image",
              "type": "string"
            }
          ],
          "internalType": "struct RecordsVotingContract.NewVersionTokenStruct",
          "name": "communityToken",
          "type": "tuple"
        },
        {
          "internalType": "address",
          "name": "requester",
          "type": "address"
        },
        {
          "internalType": "uint256",
          "name": "oldVersionId",
          "type": "uint256"
        },
        {
          "internalType": "uint256",
          "name": "tokenId",
          "type": "uint256"
        },
        {
          "internalType": "uint256",
          "name": "ballotId",
          "type": "uint256"
        },
        {
          "internalType": "bool",
          "name": "isPresent",
          "type": "bool"
        },
        {
          "internalType": "bool",
          "name": "isAccepted",
          "type": "bool"
        }
      ],
      "stateMutability": "view",
      "type": "function",
      "constant": true
    },
    {
      "inputs": [],
      "name": "recordsContract",
      "outputs": [
        {
          "internalType": "contract RecordsContract",
          "name": "",
          "type": "address"
        }
      ],
      "stateMutability": "view",
      "type": "function",
      "constant": true
    },
    {
      "inputs": [
        {
          "internalType": "uint256",
          "name": "",
          "type": "uint256"
        },
        {
          "internalType": "address",
          "name": "",
          "type": "address"
        }
      ],
      "name": "rewardsClaimed",
      "outputs": [
        {
          "internalType": "bool",
          "name": "",
          "type": "bool"
        }
      ],
      "stateMutability": "view",
      "type": "function",
      "constant": true
    },
    {
      "inputs": [
        {
          "internalType": "uint256",
          "name": "depositAmount",
          "type": "uint256"
        }
      ],
      "name": "setDepositAmount",
      "outputs": [],
      "stateMutability": "nonpayable",
      "type": "function"
    },
    {
      "inputs": [
        {
          "internalType": "uint256",
          "name": "minTurnOut",
          "type": "uint256"
        }
      ],
      "name": "setMinTurnOut",
      "outputs": [],
      "stateMutability": "nonpayable",
      "type": "function"
    },
    {
      "inputs": [
        {
          "internalType": "address",
          "name": "ownerAddress",
          "type": "address"
        }
      ],
      "name": "setOwnerAddress",
      "outputs": [],
      "stateMutability": "nonpayable",
      "type": "function"
    },
    {
      "inputs": [
        {
          "internalType": "uint256",
          "name": "votingPeriod",
          "type": "uint256"
        }
      ],
      "name": "setVotingPeriod",
      "outputs": [],
      "stateMutability": "nonpayable",
      "type": "function"
    },
    {
      "inputs": [],
      "name": "treasuryContract",
      "outputs": [
        {
          "internalType": "contract ITreasury",
          "name": "",
          "type": "address"
        }
      ],
      "stateMutability": "view",
      "type": "function",
      "constant": true
    },
    {
      "inputs": [],
      "name": "treasuryCoreContract",
      "outputs": [
        {
          "internalType": "contract ITreasuryCore",
          "name": "",
          "type": "address"
        }
      ],
      "stateMutability": "view",
      "type": "function",
      "constant": true
    },
    {
      "inputs": [
        {
          "internalType": "uint256",
          "name": "",
          "type": "uint256"
        }
      ],
      "name": "votingMap",
      "outputs": [
        {
          "internalType": "address",
          "name": "owner",
          "type": "address"
        },
        {
          "internalType": "uint256",
          "name": "yesWeight",
          "type": "uint256"
        },
        {
          "internalType": "uint256",
          "name": "yesCount",
          "type": "uint256"
        },
        {
          "internalType": "uint256",
          "name": "noWeight",
          "type": "uint256"
        },
        {
          "internalType": "uint256",
          "name": "noCount",
          "type": "uint256"
        },
        {
          "internalType": "uint256",
          "name": "tokenId",
          "type": "uint256"
        },
        {
          "internalType": "uint256",
          "name": "votingEndBlock",
          "type": "uint256"
        },
        {
          "internalType": "bool",
          "name": "isResultDeclared",
          "type": "bool"
        },
        {
          "internalType": "bool",
          "name": "canOwnerVote",
          "type": "bool"
        },
        {
          "internalType": "bool",
          "name": "isPresent",
          "type": "bool"
        }
      ],
      "stateMutability": "view",
      "type": "function",
      "constant": true
    },
    {
      "inputs": [
        {
          "internalType": "address",
          "name": "newTreasuryContractAddress",
          "type": "address"
        },
        {
          "internalType": "address",
          "name": "newGovernanceContractAddress",
          "type": "address"
        }
      ],
      "name": "initialize",
      "outputs": [],
      "stateMutability": "nonpayable",
      "type": "function"
    },
    {
      "inputs": [
        {
          "internalType": "address",
          "name": "recordsContractAddress",
          "type": "address"
        },
        {
          "internalType": "address",
          "name": "treasuryContractAddress",
          "type": "address"
        },
        {
          "internalType": "address",
          "name": "treasuryCoreContractAddress",
          "type": "address"
        },
        {
          "internalType": "address",
          "name": "newGovernanceContractAddress",
          "type": "address"
        }
      ],
      "name": "initialize",
      "outputs": [],
      "stateMutability": "nonpayable",
      "type": "function"
    },
    {
      "inputs": [
        {
          "components": [
            {
              "internalType": "string",
              "name": "name",
              "type": "string"
            },
            {
              "internalType": "string",
              "name": "image",
              "type": "string"
            },
            {
              "internalType": "string",
              "name": "recordCategory",
              "type": "string"
            },
            {
              "internalType": "uint256",
              "name": "oldRecordId",
              "type": "uint256"
            },
            {
              "internalType": "uint256[]",
              "name": "contributionIds",
              "type": "uint256[]"
            },
            {
              "components": [
                {
                  "internalType": "uint256",
                  "name": "totalSupply",
                  "type": "uint256"
                },
                {
                  "internalType": "uint256",
                  "name": "oldContributorShare",
                  "type": "uint256"
                },
                {
                  "internalType": "uint256",
                  "name": "userBalance",
                  "type": "uint256"
                },
                {
                  "internalType": "string",
                  "name": "symbol",
                  "type": "string"
                },
                {
                  "internalType": "string",
                  "name": "image",
                  "type": "string"
                }
              ],
              "internalType": "struct RecordsVotingContract.NewVersionTokenStruct",
              "name": "governanceToken",
              "type": "tuple"
            },
            {
              "components": [
                {
                  "internalType": "uint256",
                  "name": "totalSupply",
                  "type": "uint256"
                },
                {
                  "internalType": "uint256",
                  "name": "oldContributorShare",
                  "type": "uint256"
                },
                {
                  "internalType": "uint256",
                  "name": "userBalance",
                  "type": "uint256"
                },
                {
                  "internalType": "string",
                  "name": "symbol",
                  "type": "string"
                },
                {
                  "internalType": "string",
                  "name": "image",
                  "type": "string"
                }
              ],
              "internalType": "struct RecordsVotingContract.NewVersionTokenStruct",
              "name": "communityToken",
              "type": "tuple"
            }
          ],
          "internalType": "struct RecordsVotingContract.NewRecordVersionParams",
          "name": "params",
          "type": "tuple"
        },
        {
          "internalType": "address payable",
          "name": "platformWallet",
          "type": "address"
        },
        {
          "internalType": "uint256",
          "name": "platformFee",
          "type": "uint256"
        }
      ],
      "name": "createNewRecordVersion",
      "outputs": [
        {
          "internalType": "uint256",
          "name": "",
          "type": "uint256"
        }
      ],
      "stateMutability": "payable",
      "type": "function",
      "payable": true
    },
    {
      "inputs": [
        {
          "internalType": "uint256",
          "name": "versionReqId",
          "type": "uint256"
        },
        {
          "internalType": "bool",
          "name": "vote",
          "type": "bool"
        }
      ],
      "name": "castVote",
      "outputs": [],
      "stateMutability": "nonpayable",
      "type": "function"
    },
    {
      "inputs": [
        {
          "internalType": "uint256",
          "name": "versionReqId",
          "type": "uint256"
        }
      ],
      "name": "declareWinner",
      "outputs": [],
      "stateMutability": "nonpayable",
      "type": "function"
    },
    {
      "inputs": [
        {
          "internalType": "uint256",
          "name": "versionReqId",
          "type": "uint256"
        }
      ],
      "name": "claimNewRecordTokens",
      "outputs": [],
      "stateMutability": "nonpayable",
      "type": "function"
    },
    {
      "inputs": [
        {
          "internalType": "address",
          "name": "operator",
          "type": "address"
        },
        {
          "internalType": "address",
          "name": "from",
          "type": "address"
        },
        {
          "internalType": "uint256",
          "name": "id",
          "type": "uint256"
        },
        {
          "internalType": "uint256",
          "name": "value",
          "type": "uint256"
        },
        {
          "internalType": "bytes",
          "name": "data",
          "type": "bytes"
        }
      ],
      "name": "onERC1155Received",
      "outputs": [
        {
          "internalType": "bytes4",
          "name": "",
          "type": "bytes4"
        }
      ],
      "stateMutability": "nonpayable",
      "type": "function"
    },
    {
      "inputs": [
        {
          "internalType": "address",
          "name": "operator",
          "type": "address"
        },
        {
          "internalType": "address",
          "name": "from",
          "type": "address"
        },
        {
          "internalType": "uint256[]",
          "name": "ids",
          "type": "uint256[]"
        },
        {
          "internalType": "uint256[]",
          "name": "values",
          "type": "uint256[]"
        },
        {
          "internalType": "bytes",
          "name": "data",
          "type": "bytes"
        }
      ],
      "name": "onERC1155BatchReceived",
      "outputs": [
        {
          "internalType": "bytes4",
          "name": "",
          "type": "bytes4"
        }
      ],
      "stateMutability": "nonpayable",
      "type": "function"
    },
    {
      "inputs": [
        {
          "internalType": "bytes4",
          "name": "interfaceId",
          "type": "bytes4"
        }
      ],
      "name": "supportsInterface",
      "outputs": [
        {
          "internalType": "bool",
          "name": "",
          "type": "bool"
        }
      ],
      "stateMutability": "view",
      "type": "function",
      "constant": true
    }
  ],
  "bytecode": "0x6080604052662386f26fc1000060015560196002556101f460035560006009556000600f553480156200003157600080fd5b50604051620057b6380380620057b683398101604081905262000054916200007a565b600780546001600160a01b0319166001600160a01b0392909216919091179055620000ac565b6000602082840312156200008d57600080fd5b81516001600160a01b0381168114620000a557600080fd5b9392505050565b6156fa80620000bc6000396000f3fe6080604052600436106101cc5760003560e01c8063879253a3116100f7578063bc197c8111610095578063f23a6e6111610064578063f23a6e611461076f578063f8c8765e146107b5578063fc0d561e146107d5578063fcd2d3f71461080257600080fd5b8063bc197c8114610696578063c768e2d61461070f578063e1f2e0841461072f578063ea0217cf1461074f57600080fd5b8063abb7ed7f116100d1578063abb7ed7f14610609578063acb3149314610629578063b274997114610656578063ba19a6751461066957600080fd5b8063879253a31461058b5780638d2ae1f7146105a15780639a835e91146105ce57600080fd5b806333e0ea2e1161016f57806363e249c11161013e57806363e249c1146103bb5780636c83244a146104ad5780636d8cee56146104c357806383b0b071146104e357600080fd5b806333e0ea2e14610315578063485cc95514610339578063556bed3a1461035957806358f0b6c11461038657600080fd5b806314627834116101ab578063146278341461027b57806315373e3d146102a857806318da0011146102c8578063331a6bf5146102f557600080fd5b8062c2943c146101d157806301ffc9a7146101f3578063117803e314610229575b600080fd5b3480156101dd57600080fd5b506101f16101ec3660046147e6565b61082f565b005b3480156101ff57600080fd5b5061021461020e3660046147ff565b50600090565b60405190151581526020015b60405180910390f35b34801561023557600080fd5b506007546102569073ffffffffffffffffffffffffffffffffffffffff1681565b60405173ffffffffffffffffffffffffffffffffffffffff9091168152602001610220565b34801561028757600080fd5b506008546102569073ffffffffffffffffffffffffffffffffffffffff1681565b3480156102b457600080fd5b506101f16102c3366004614852565b6110ad565b3480156102d457600080fd5b506005546102569073ffffffffffffffffffffffffffffffffffffffff1681565b34801561030157600080fd5b506101f16103103660046148a4565b611199565b34801561032157600080fd5b5061032b60035481565b604051908152602001610220565b34801561034557600080fd5b506101f16103543660046148c1565b611287565b34801561036557600080fd5b506012546102569073ffffffffffffffffffffffffffffffffffffffff1681565b34801561039257600080fd5b506103a66103a13660046147e6565b61137e565b60405161022099989796959493929190614a64565b3480156103c757600080fd5b506104466103d63660046147e6565b600a602052600090815260409020805460018201546002830154600384015460048501546005860154600687015460079097015473ffffffffffffffffffffffffffffffffffffffff909616969495939492939192909160ff80821691610100810482169162010000909104168a565b6040805173ffffffffffffffffffffffffffffffffffffffff909b168b5260208b0199909952978901969096526060880194909452608087019290925260a086015260c0850152151560e08401521515610100830152151561012082015261014001610220565b3480156104b957600080fd5b5061032b60025481565b3480156104cf57600080fd5b506101f16104de3660046147e6565b6118a2565b3480156104ef57600080fd5b506105486104fe3660046147e6565b600d60205260009081526040902080546001820154600283015460039093015473ffffffffffffffffffffffffffffffffffffffff90921692909160ff8082169161010090041685565b6040805173ffffffffffffffffffffffffffffffffffffffff9096168652602086019490945292840191909152151560608301521515608082015260a001610220565b34801561059757600080fd5b5061032b60015481565b3480156105ad57600080fd5b506006546102569073ffffffffffffffffffffffffffffffffffffffff1681565b3480156105da57600080fd5b506102146105e9366004614aef565b601160209081526000928352604080842090915290825290205460ff1681565b34801561061557600080fd5b506101f1610624366004614b14565b611928565b34801561063557600080fd5b506004546102569073ffffffffffffffffffffffffffffffffffffffff1681565b61032b610664366004614dee565b611ae6565b34801561067557600080fd5b506014546102569073ffffffffffffffffffffffffffffffffffffffff1681565b3480156106a257600080fd5b506106de6106b1366004614fc2565b7fbc197c819b3e337a6f9652dd10becd7eef83032af3b9d958d3d42f669414662198975050505050505050565b6040517fffffffff000000000000000000000000000000000000000000000000000000009091168152602001610220565b34801561071b57600080fd5b506101f161072a3660046147e6565b61247c565b34801561073b57600080fd5b506101f161074a3660046147e6565b612d69565b34801561075b57600080fd5b506101f161076a3660046147e6565b612def565b34801561077b57600080fd5b506106de61078a366004615081565b7ff23a6e612e1ff4830e658fe43f4e3cb4a5f8170bd5d9e69fb5d7a7fa9e4fdf979695505050505050565b3480156107c157600080fd5b506101f16107d03660046150fd565b612e75565b3480156107e157600080fd5b506015546102569073ffffffffffffffffffffffffffffffffffffffff1681565b34801561080e57600080fd5b506013546102569073ffffffffffffffffffffffffffffffffffffffff1681565b600081815260106020526040808220815161024081019092528054829061014082019083908290829061086190615159565b80601f016020809104026020016040519081016040528092919081815260200182805461088d90615159565b80156108da5780601f106108af576101008083540402835291602001916108da565b820191906000526020600020905b8154815290600101906020018083116108bd57829003601f168201915b505050505081526020016001820180546108f390615159565b80601f016020809104026020016040519081016040528092919081815260200182805461091f90615159565b801561096c5780601f106109415761010080835404028352916020019161096c565b820191906000526020600020905b81548152906001019060200180831161094f57829003601f168201915b50505091835250506002820154602082015260038201546040820152600482015473ffffffffffffffffffffffffffffffffffffffff1660608201526005820180546080909201916109bd90615159565b80601f01602080910402602001604051908101604052809291908181526020018280546109e990615159565b8015610a365780601f10610a0b57610100808354040283529160200191610a36565b820191906000526020600020905b815481529060010190602001808311610a1957829003601f168201915b50505050508152602001600682015481526020016007820160009054906101000a900460ff1615151515815250508152602001600882016040518060a0016040529081600082015481526020016001820154815260200160028201548152602001600382018054610aa690615159565b80601f0160208091040260200160405190810160405280929190818152602001828054610ad290615159565b8015610b1f5780601f10610af457610100808354040283529160200191610b1f565b820191906000526020600020905b815481529060010190602001808311610b0257829003601f168201915b50505050508152602001600482018054610b3890615159565b80601f0160208091040260200160405190810160405280929190818152602001828054610b6490615159565b8015610bb15780601f10610b8657610100808354040283529160200191610bb1565b820191906000526020600020905b815481529060010190602001808311610b9457829003601f168201915b5050505050815250508152602001600d82016040518060a0016040529081600082015481526020016001820154815260200160028201548152602001600382018054610bfc90615159565b80601f0160208091040260200160405190810160405280929190818152602001828054610c2890615159565b8015610c755780601f10610c4a57610100808354040283529160200191610c75565b820191906000526020600020905b815481529060010190602001808311610c5857829003601f168201915b50505050508152602001600482018054610c8e90615159565b80601f0160208091040260200160405190810160405280929190818152602001828054610cba90615159565b8015610d075780601f10610cdc57610100808354040283529160200191610d07565b820191906000526020600020905b815481529060010190602001808311610cea57829003601f168201915b505050505081525050815260200160128201805480602002602001604051908101604052809291908181526020018280548015610d6357602002820191906000526020600020905b815481526020019060010190808311610d4f575b5050509183525050601382015473ffffffffffffffffffffffffffffffffffffffff16602082015260148201546040820152601582015460608201526016820154608082015260179091015460ff808216151560a084015261010090910416151560c09091015260e08101519091506000908190610de09061311b565b91509150610df18360e00151613439565b60008215610fff57601554845160608601516040517f4b02f22d00000000000000000000000000000000000000000000000000000000815273ffffffffffffffffffffffffffffffffffffffff90931692634b02f22d92610e569290916004016151e8565b6020604051808303816000875af1158015610e75573d6000803e3d6000fd5b505050506040513d601f19601f82011682018060405250810190610e99919061520d565b602085015160055460a08701516040517f2d4a03820000000000000000000000000000000000000000000000000000000081526004810191909152929350610f4b92849173ffffffffffffffffffffffffffffffffffffffff1690632d4a038290602401602060405180830381865afa158015610f1a573d6000803e3d6000fd5b505050506040513d601f19601f82011682018060405250810190610f3e919061520d565b8860018960800151613687565b60408085015160055460a087015192517f2d4a0382000000000000000000000000000000000000000000000000000000008152610fff93859273ffffffffffffffffffffffffffffffffffffffff1691632d4a038291610fb19160040190815260200190565b602060405180830381865afa158015610fce573d6000803e3d6000fd5b505050506040513d601f19601f82011682018060405250810190610ff2919061520d565b8860008960800151613687565b60008581526010602090815260409182902060170180547fffffffffffffffffffffffffffffffffffffffffffffffffffffffffffff00ff166101008715159081029190911790915560c08781015160e089015185518b815294850191909152938301939093526060820152831515608082015260a081018390527f88555918fb2b610e47497c9873e7509aac75e36c699aea4581f692c529d8ebb191015b60405180910390a15050505050565b60008281526010602052604090206017015460ff161515600114611132576040517f08c379a000000000000000000000000000000000000000000000000000000000815260206004820152601f60248201527f494e56414c49443a20494e56414c49445f56455253494f4e5f5245515f49440060448201526064015b60405180910390fd5b60008281526010602090815260409182902060160154825133815291820185905281830152821515606082015290517f7fa8530f2b70b1c2f0aa92650d5274e8e84988e1af0fa8ca56a37ba7646720749181900360800190a16111958282613975565b5050565b60075473ffffffffffffffffffffffffffffffffffffffff163314611240576040517f08c379a000000000000000000000000000000000000000000000000000000000815260206004820152602360248201527f554e415554484f52495a45443a2043414e4e4f545f504552464f524d5f41435460448201527f494f4e00000000000000000000000000000000000000000000000000000000006064820152608401611129565b600780547fffffffffffffffffffffffff00000000000000000000000000000000000000001673ffffffffffffffffffffffffffffffffffffffff92909216919091179055565b600054610100900460ff1661131e576040517f08c379a000000000000000000000000000000000000000000000000000000000815260206004820152602b60248201527f496e697469616c697a61626c653a20636f6e7472616374206973206e6f74206960448201527f6e697469616c697a696e670000000000000000000000000000000000000000006064820152608401611129565b6004805473ffffffffffffffffffffffffffffffffffffffff9384167fffffffffffffffffffffffff0000000000000000000000000000000000000000918216811790925560058054821690921790915560088054929093169116179055565b601060205280600052604060002060009150905080600001604051806101000160405290816000820180546113b290615159565b80601f01602080910402602001604051908101604052809291908181526020018280546113de90615159565b801561142b5780601f106114005761010080835404028352916020019161142b565b820191906000526020600020905b81548152906001019060200180831161140e57829003601f168201915b5050505050815260200160018201805461144490615159565b80601f016020809104026020016040519081016040528092919081815260200182805461147090615159565b80156114bd5780601f10611492576101008083540402835291602001916114bd565b820191906000526020600020905b8154815290600101906020018083116114a057829003601f168201915b50505091835250506002820154602082015260038201546040820152600482015473ffffffffffffffffffffffffffffffffffffffff16606082015260058201805460809092019161150e90615159565b80601f016020809104026020016040519081016040528092919081815260200182805461153a90615159565b80156115875780601f1061155c57610100808354040283529160200191611587565b820191906000526020600020905b81548152906001019060200180831161156a57829003601f168201915b50505050508152602001600682015481526020016007820160009054906101000a900460ff16151515158152505090806008016040518060a00160405290816000820154815260200160018201548152602001600282015481526020016003820180546115f390615159565b80601f016020809104026020016040519081016040528092919081815260200182805461161f90615159565b801561166c5780601f106116415761010080835404028352916020019161166c565b820191906000526020600020905b81548152906001019060200180831161164f57829003601f168201915b5050505050815260200160048201805461168590615159565b80601f01602080910402602001604051908101604052809291908181526020018280546116b190615159565b80156116fe5780601f106116d3576101008083540402835291602001916116fe565b820191906000526020600020905b8154815290600101906020018083116116e157829003601f168201915b5050505050815250509080600d016040518060a001604052908160008201548152602001600182015481526020016002820154815260200160038201805461174590615159565b80601f016020809104026020016040519081016040528092919081815260200182805461177190615159565b80156117be5780601f10611793576101008083540402835291602001916117be565b820191906000526020600020905b8154815290600101906020018083116117a157829003601f168201915b505050505081526020016004820180546117d790615159565b80601f016020809104026020016040519081016040528092919081815260200182805461180390615159565b80156118505780601f1061182557610100808354040283529160200191611850565b820191906000526020600020905b81548152906001019060200180831161183357829003601f168201915b505050919092525050506013820154601483015460158401546016850154601790950154939473ffffffffffffffffffffffffffffffffffffffff909316939192909160ff8082169161010090041689565b60085473ffffffffffffffffffffffffffffffffffffffff163314611923576040517f08c379a000000000000000000000000000000000000000000000000000000000815260206004820152601d60248201527f554e415554484f52495a45443a204f4e4c595f474f5645524e414e43450000006044820152606401611129565b600155565b73ffffffffffffffffffffffffffffffffffffffff84166000908152600e60205260408120905b8154811015611ade57600a600083838154811061196e5761196e615226565b6000918252602080832090910154835282019290925260400190206007015460ff161515600114806119d1575043600a60008484815481106119b2576119b2615226565b9060005260206000200154815260200190815260200160002060060154105b15611a6a57815482906119e690600190615284565b815481106119f6576119f6615226565b9060005260206000200154828281548110611a1357611a13615226565b906000526020600020018190555081805480611a3157611a3161529b565b600190038181906000526020600020016000905590558060001415611a5857506000611acc565b80611a62816152ca565b915050611acc565b600a6000838381548110611a8057611a80615226565b9060005260206000200154815260200190815260200160002060050154851415611acc57611acc828281548110611ab957611ab9615226565b9060005260206000200154878686613c56565b80611ad6816152ff565b91505061194f565b505050505050565b60006b033b2e3c9fd0803ce80000008460a00151600001511115611b8c576040517f08c379a000000000000000000000000000000000000000000000000000000000815260206004820152602160248201527f494e56414c49443a20474f565f535550504c595f4c494d49545f52454143484560448201527f44000000000000000000000000000000000000000000000000000000000000006064820152608401611129565b60c0840151516b033b2e3c9fd0803ce80000001015611c2d576040517f08c379a000000000000000000000000000000000000000000000000000000000815260206004820152602260248201527f494e56414c49443a20434f4d4d5f535550504c595f4c494d49545f524541434860448201527f45440000000000000000000000000000000000000000000000000000000000006064820152608401611129565b81341015611c97576040517f08c379a000000000000000000000000000000000000000000000000000000000815260206004820152601e60248201527f494e563a20494e53554646494349454e545f504c4154464f524d5f46454500006044820152606401611129565b3415611cfc5760405173ffffffffffffffffffffffffffffffffffffffff8416908390600081818185875af1925050503d8060008114611cf3576040519150601f19603f3d011682016040523d82523d6000602084013e611cf8565b606091505b5050505b601554606085015160a0860151805160409182015160c089015180519084015193517f9ba7367e0000000000000000000000000000000000000000000000000000000081526004810195909552602485019290925260448401526064830152608482015273ffffffffffffffffffffffffffffffffffffffff90911690639ba7367e9060a401602060405180830381865afa158015611d9f573d6000803e3d6000fd5b505050506040513d601f19601f82011682018060405250810190611dc39190615343565b50600f8054906000611dd4836152ff565b909155505060055460608501516040517f2d4a0382000000000000000000000000000000000000000000000000000000008152600481019190915260009173ffffffffffffffffffffffffffffffffffffffff1690632d4a038290602401602060405180830381865afa158015611e4f573d6000803e3d6000fd5b505050506040513d601f19601f82011682018060405250810190611e73919061520d565b90506000611e82600083613df8565b9050611e9833611e928634615284565b83613fbd565b60055460a087015160609081015160c0890151909101516040517f6c45f2f600000000000000000000000000000000000000000000000000000000815273ffffffffffffffffffffffffffffffffffffffff90931692636c45f2f692611f02929091600401615360565b600060405180830381600087803b158015611f1c57600080fd5b505af1158015611f30573d6000803e3d6000fd5b505060055460a089015160609081015160c08b0151909101516040517f61cbc35700000000000000000000000000000000000000000000000000000000815273ffffffffffffffffffffffffffffffffffffffff90931694506361cbc3579350611f9c92600401615360565b600060405180830381600087803b158015611fb657600080fd5b505af1158015611fca573d6000803e3d6000fd5b50506015546060890151895160208b01516040808d015190517fc1befa6a0000000000000000000000000000000000000000000000000000000081526000975073ffffffffffffffffffffffffffffffffffffffff909516955063c1befa6a9461203e949392919033908a90600401615385565b6000604051808303816000875af115801561205d573d6000803e3d6000fd5b505050506040513d6000823e601f3d9081017fffffffffffffffffffffffffffffffffffffffffffffffffffffffffffffffe01682016040526120a39190810190615440565b905060006040518061014001604052808381526020018960a0015181526020018960c001518152602001896080015181526020013373ffffffffffffffffffffffffffffffffffffffff168152602001896060015181526020018581526020018481526020016001151581526020016000151581525090507f42cad05f5e0c47228d26190e634cc7f9822f43ee731fe6b8f723987878a9f746600f54838a60a001518b60c001518c60800151338e606001518b8b60405161216c99989796959493929190615536565b60405180910390a1600f5460408051338152602081019290925281018490524260608201527f3280de2a4f99f3d75b997f6eaa4416477712e0bb888b45922dc7c757aed2ce6e9060800160405180910390a1600f546000908152601060209081526040909120825180518051859484926121ec9284929190910190614713565b5060208281015180516122059260018501920190614713565b50604082015160028201556060820151600382015560808201516004820180547fffffffffffffffffffffffff00000000000000000000000000000000000000001673ffffffffffffffffffffffffffffffffffffffff90921691909117905560a08201518051612280916005840191602090910190614713565b5060c0820151600682015560e090910151600790910180547fffffffffffffffffffffffffffffffffffffffffffffffffffffffffffffff00169115159190911790556020828101518051600884019081558183015160098501556040820151600a850155606082015180519293919261230092600b8701920190614713565b506080820151805161231c916004840191602090910190614713565b5050506040828101518051600d8401908155602080830151600e86015592820151600f850155606082015180519293919261235d9260108701920190614713565b5060808201518051612379916004840191602090910190614713565b50505060608201518051612397916012840191602090910190614797565b5060808201516013820180547fffffffffffffffffffffffff00000000000000000000000000000000000000001673ffffffffffffffffffffffffffffffffffffffff90921691909117905560a0820151601482015560c0820151601582015560e082015160168201556101008083015160179092018054610120909401517fffffffffffffffffffffffffffffffffffffffffffffffffffffffffffff00009094169215157fffffffffffffffffffffffffffffffffffffffffffffffffffffffffffff00ff1692909217921515029190911790555050600f549695505050505050565b60008181526010602052604080822081516102408101909252805482906101408201908390829082906124ae90615159565b80601f01602080910402602001604051908101604052809291908181526020018280546124da90615159565b80156125275780601f106124fc57610100808354040283529160200191612527565b820191906000526020600020905b81548152906001019060200180831161250a57829003601f168201915b5050505050815260200160018201805461254090615159565b80601f016020809104026020016040519081016040528092919081815260200182805461256c90615159565b80156125b95780601f1061258e576101008083540402835291602001916125b9565b820191906000526020600020905b81548152906001019060200180831161259c57829003601f168201915b50505091835250506002820154602082015260038201546040820152600482015473ffffffffffffffffffffffffffffffffffffffff16606082015260058201805460809092019161260a90615159565b80601f016020809104026020016040519081016040528092919081815260200182805461263690615159565b80156126835780601f1061265857610100808354040283529160200191612683565b820191906000526020600020905b81548152906001019060200180831161266657829003601f168201915b50505050508152602001600682015481526020016007820160009054906101000a900460ff1615151515815250508152602001600882016040518060a00160405290816000820154815260200160018201548152602001600282015481526020016003820180546126f390615159565b80601f016020809104026020016040519081016040528092919081815260200182805461271f90615159565b801561276c5780601f106127415761010080835404028352916020019161276c565b820191906000526020600020905b81548152906001019060200180831161274f57829003601f168201915b5050505050815260200160048201805461278590615159565b80601f01602080910402602001604051908101604052809291908181526020018280546127b190615159565b80156127fe5780601f106127d3576101008083540402835291602001916127fe565b820191906000526020600020905b8154815290600101906020018083116127e157829003601f168201915b5050505050815250508152602001600d82016040518060a001604052908160008201548152602001600182015481526020016002820154815260200160038201805461284990615159565b80601f016020809104026020016040519081016040528092919081815260200182805461287590615159565b80156128c25780601f10612897576101008083540402835291602001916128c2565b820191906000526020600020905b8154815290600101906020018083116128a557829003601f168201915b505050505081526020016004820180546128db90615159565b80601f016020809104026020016040519081016040528092919081815260200182805461290790615159565b80156129545780601f1061292957610100808354040283529160200191612954565b820191906000526020600020905b81548152906001019060200180831161293757829003601f168201915b5050505050815250508152602001601282018054806020026020016040519081016040528092919081815260200182805480156129b057602002820191906000526020600020905b81548152602001906001019080831161299c575b5050509183525050601382015473ffffffffffffffffffffffffffffffffffffffff166020808301919091526014830154604080840191909152601584015460608401526016840154608084015260179093015460ff808216151560a08501526101009091048116151560c09093019290925260e08401516000908152600a909152919091206007015491925016612aa4576040517f08c379a000000000000000000000000000000000000000000000000000000000815260206004820152601a60248201527f494e56414c49443a2042414c4c4f545f5354494c4c5f4f50454e0000000000006044820152606401611129565b600082815260116020908152604080832033845290915290205460ff1615612b28576040517f08c379a000000000000000000000000000000000000000000000000000000000815260206004820152601c60248201527f494e56414c49443a2043414e5f4f4e4c595f434c41494d5f4f4e4345000000006044820152606401611129565b6101208101511515600114612b99576040517f08c379a000000000000000000000000000000000000000000000000000000000815260206004820152601960248201527f494e56414c49443a2056455253494f4e5f52454a4543544544000000000000006044820152606401611129565b6000601660008481526020019081526020016000206040518060e001604052908160008201548152602001600182015481526020016002820154815260200160038201548152602001600482015481526020016005820154815260200160068201548152505090506000601760008581526020019081526020016000206040518060e001604052908160008201548152602001600182015481526020016002820154815260200160038201548152602001600482015481526020016005820154815260200160068201548152505090506000612c748361418f565b90506000612c818361418f565b608080860151604080518a8152602081019290925281018590523360608201529192507f05e5c9b248e254567ca15790a9819305964904f68019d07432cf64fa05f2b495910160405180910390a160808084015160408051898152602081019290925281018390523360608201527f05e5c9b248e254567ca15790a9819305964904f68019d07432cf64fa05f2b495910160405180910390a150505060e0909101516000908152600b60209081526040808320338452909152902080547fffffffffffffffffffffffffffffffffffffffffffffffffffffffffffffff001660011790555050565b60085473ffffffffffffffffffffffffffffffffffffffff163314612dea576040517f08c379a000000000000000000000000000000000000000000000000000000000815260206004820152601d60248201527f554e415554484f52495a45443a204f4e4c595f474f5645524e414e43450000006044820152606401611129565b600355565b60085473ffffffffffffffffffffffffffffffffffffffff163314612e70576040517f08c379a000000000000000000000000000000000000000000000000000000000815260206004820152601d60248201527f554e415554484f52495a45443a204f4e4c595f474f5645524e414e43450000006044820152606401611129565b600255565b600054610100900460ff1615808015612e955750600054600160ff909116105b80612eaf5750303b158015612eaf575060005460ff166001145b612f3b576040517f08c379a000000000000000000000000000000000000000000000000000000000815260206004820152602e60248201527f496e697469616c697a61626c653a20636f6e747261637420697320616c72656160448201527f647920696e697469616c697a65640000000000000000000000000000000000006064820152608401611129565b600080547fffffffffffffffffffffffffffffffffffffffffffffffffffffffffffffff001660011790558015612f9957600080547fffffffffffffffffffffffffffffffffffffffffffffffffffffffffffff00ff166101001790555b60075473ffffffffffffffffffffffffffffffffffffffff163314613040576040517f08c379a000000000000000000000000000000000000000000000000000000000815260206004820152602360248201527f554e415554484f52495a45443a2043414e4e4f545f504552464f524d5f41435460448201527f494f4e00000000000000000000000000000000000000000000000000000000006064820152608401611129565b61304a8483611287565b6014805473ffffffffffffffffffffffffffffffffffffffff8088167fffffffffffffffffffffffff000000000000000000000000000000000000000092831681179093556015805483169093179092556012805492861692821683179055601380549091169091179055801561311457600080547fffffffffffffffffffffffffffffffffffffffffffffffffffffffffffff00ff169055604051600181527f7f26b83ff96e1f2b6a682f133852f6798a09c465da95921460cefb38474024989060200161109e565b5050505050565b6000818152600a6020526040812060070154819062010000900460ff1615156001146131a3576040517f08c379a000000000000000000000000000000000000000000000000000000000815260206004820152601960248201527f494e56414c49443a2042414c4c4f545f4e4f545f464f554e44000000000000006044820152606401611129565b6000838152600a6020526040902060060154431161321d576040517f08c379a000000000000000000000000000000000000000000000000000000000815260206004820152601d60248201527f494e56414c49443a20564f54494e475f54494d455f4e4f545f4f5645520000006044820152606401611129565b6000838152600a602052604090206007015460ff1615613299576040517f08c379a000000000000000000000000000000000000000000000000000000000815260206004820181905260248201527f494e56414c49443a20524553554c545f414c52454144595f4445434c415245446044820152606401611129565b6000838152600a602052604080822060018082015460038301546007840180547fffffffffffffffffffffffffffffffffffffffffffffffffffffffffffffff0016909317909255600580549084015494517f036c22ad000000000000000000000000000000000000000000000000000000008152939591949293919273ffffffffffffffffffffffffffffffffffffffff9091169163036c22ad916133459160040190815260200190565b602060405180830381865afa158015613362573d6000803e3d6000fd5b505050506040513d601f19601f82011682018060405250810190613386919061520d565b905060006064806003548461339b91906155cc565b6133a59190615609565b6133af9190615609565b9050806133bc8585615644565b111561342957831561341857600060646133d68587615644565b6133e19060426155cc565b6133eb9190615609565b90508085111561340657506001988998509650505050505050565b50600098600198509650505050505050565b506000976001975095505050505050565b5060009788975095505050505050565b6000818152600d602052604090206003015460ff6101009091041615156001146134bf576040517f08c379a000000000000000000000000000000000000000000000000000000000815260206004820152600d60248201527f4445505f4e4f545f4558495354000000000000000000000000000000000000006044820152606401611129565b6000818152600d602052604090206003015460ff161561353b576040517f08c379a000000000000000000000000000000000000000000000000000000000815260206004820152601360248201527f4445505f414c52454144595f434c41494d4544000000000000000000000000006044820152606401611129565b6000818152600d60205260408082208054600290910154915173ffffffffffffffffffffffffffffffffffffffff90911691908381818185875af1925050503d80600081146135a6576040519150601f19603f3d011682016040523d82523d6000602084013e6135ab565b606091505b5050905080613616576040517f08c379a000000000000000000000000000000000000000000000000000000000815260206004820152600d60248201527f494e565f4445505f434c41494d000000000000000000000000000000000000006044820152606401611129565b6000828152600d60209081526040918290208054600290910154835173ffffffffffffffffffffffffffffffffffffffff9092168252918101859052918201527f6b1069552f63b401b74bc71e75594d0a8bc61f7a42998e0f201b78f9aa600d329060600160405180910390a15050565b6005546040517f036c22ad00000000000000000000000000000000000000000000000000000000815260048101869052859160009173ffffffffffffffffffffffffffffffffffffffff9091169063036c22ad90602401602060405180830381865afa1580156136fb573d6000803e3d6000fd5b505050506040513d601f19601f8201168201806040525081019061371f919061520d565b90506000841561373b57613734898986614353565b9050613749565b613746898986614414565b90505b60006040518060e001604052808481526020018b602001518152602001888152602001858152602001838152602001848c60200151670de0b6b3a764000061379191906155cc565b61379b9190615609565b8152600554604080517f9711715a000000000000000000000000000000000000000000000000000000008152905160209384019373ffffffffffffffffffffffffffffffffffffffff90931692639711715a926004808201939182900301816000875af1158015613810573d6000803e3d6000fd5b505050506040513d601f19601f82011682018060405250810190613834919061520d565b81525090507f70ca97bed53efc5c77b3772fd7dd916c4712482aeef3a17d25dfad3bff28f86d87826000015183602001518460600151868660a001518760c001516040516138b39796959493929190968752602087019590955260408601939093526060850191909152608084015260a083015260c082015260e00190565b60405180910390a185156139175760008781526016602090815260409182902083518155908301516001820155908201516002820155606082015160038201556080820151600482015560a0820151600582015560c0820151600690910155613969565b60008781526017602090815260409182902083518155908301516001820155908201516002820155606082015160038201556080820151600482015560a0820151600582015560c08201516006909101555b50505050505050505050565b6000828152600a60205260409020600701548290339062010000900460ff1615156001146139ff576040517f08c379a000000000000000000000000000000000000000000000000000000000815260206004820152601960248201527f494e56414c49443a2042414c4c4f545f4e4f545f464f554e44000000000000006044820152606401611129565b6000828152600a60205260409020600601544310613a79576040517f08c379a000000000000000000000000000000000000000000000000000000000815260206004820152601960248201527f494e56414c49443a20564f54494e475f54494d455f4f564552000000000000006044820152606401611129565b6000828152600b6020908152604080832073ffffffffffffffffffffffffffffffffffffffff8516845290915290205460ff1615613b13576040517f08c379a000000000000000000000000000000000000000000000000000000000815260206004820152601660248201527f494e56414c49443a20414c52454144595f564f544544000000000000000000006044820152606401611129565b6000848152600a60205260409020600701548490610100900460ff1615613bbd576000818152600b6020908152604080832032845290915290205460ff1615613bb8576040517f08c379a000000000000000000000000000000000000000000000000000000000815260206004820152601660248201527f494e56414c49443a20414c52454144595f564f544544000000000000000000006044820152606401611129565b613c4b565b6000818152600a602052604090205473ffffffffffffffffffffffffffffffffffffffff16321415613c4b576040517f08c379a000000000000000000000000000000000000000000000000000000000815260206004820152601f60248201527f554e415554484f52495a45443a204f574e45525f43414e4e4f545f564f5445006044820152606401611129565b61311485853261448a565b6000848152600b6020908152604080832073ffffffffffffffffffffffffffffffffffffffff8716845290915290205460ff161515600114613d1a576040517f08c379a000000000000000000000000000000000000000000000000000000000815260206004820152602560248201527f494e56414c49443a20494e5445524e414c3a20555345525f4841535f4e4f545f60448201527f564f5445440000000000000000000000000000000000000000000000000000006064820152608401611129565b6000848152600c6020908152604080832073ffffffffffffffffffffffffffffffffffffffff8716845290915290205460ff168015613da5576000858152600a602052604081206001018054859290613d74908490615284565b90915550506000858152600a602052604081206001018054849290613d9a908490615644565b909155506131149050565b6000858152600a602052604081206003018054859290613dc6908490615284565b90915550506000858152600a602052604081206003018054849290613dec908490615644565b90915550505050505050565b6009805460009182613e09836152ff565b919050555060006040518061014001604052803273ffffffffffffffffffffffffffffffffffffffff1681526020016000815260200160008152602001600081526020016000815260200184815260200160025443613e689190615644565b81526000602080830182905296151560408084019190915260016060938401819052600980548452600a8a5292829020855181547fffffffffffffffffffffffff00000000000000000000000000000000000000001673ffffffffffffffffffffffffffffffffffffffff909116178155988501519089015583015160028801559082015160038701556080820151600487015560a0820151600587015560c0820151600687015560e08201516007909601805461010080850151610120909501517fffffffffffffffffffffffffffffffffffffffffffffffffffffffffffff00009092169815157fffffffffffffffffffffffffffffffffffffffffffffffffffffffffffff00ff1698909817931515909702929092177fffffffffffffffffffffffffffffffffffffffffffffffffffffffffff00ffff16620100009615159690960295909517905550509054919050565b6001548214614028576040517f08c379a000000000000000000000000000000000000000000000000000000000815260206004820152600760248201527f494e565f444550000000000000000000000000000000000000000000000000006044820152606401611129565b6040805160a0808201835273ffffffffffffffffffffffffffffffffffffffff861680835260208084018690526001805485870181905260006060808801829052608080890185905289519687529486018a9052858901929092529084015290820152925191927f58ac581930e3170185d9c86e70eceabd7254c9eee2c1df3b76e38f030645ec3d929081900390910190a16000918252600d6020908152604092839020825181547fffffffffffffffffffffffff00000000000000000000000000000000000000001673ffffffffffffffffffffffffffffffffffffffff9091161781559082015160018201559181015160028301556060810151600390920180546080909201517fffffffffffffffffffffffffffffffffffffffffffffffffffffffffffff00009092169215157fffffffffffffffffffffffffffffffffffffffffffffffffffffffffffff00ff1692909217610100911515919091021790555050565b60135460c082015160608301516040517f626da06800000000000000000000000000000000000000000000000000000000815233600482015260248101929092526044820152600091829173ffffffffffffffffffffffffffffffffffffffff9091169063626da06890606401602060405180830381865afa158015614219573d6000803e3d6000fd5b505050506040513d601f19601f8201168201806040525081019061423d919061520d565b90508061424d5750600092915050565b6000670de0b6b3a7640000828560a0015161426891906155cc565b6142729190615609565b9050801561434c5760135460808501516040517ff242432a00000000000000000000000000000000000000000000000000000000815230600482015233602482015260448101919091526064810183905260a06084820152602060a48201527f494e56414c49443a20524f59414c54595f414c52454144595f434c41494d454460c482015273ffffffffffffffffffffffffffffffffffffffff9091169063f242432a9060e401600060405180830381600087803b15801561433357600080fd5b505af1158015614347573d6000803e3d6000fd5b505050505b9392505050565b600554835160408086015160608701516080880151602089015193517f54d4f71900000000000000000000000000000000000000000000000000000000815260009673ffffffffffffffffffffffffffffffffffffffff16956354d4f719956143c9958b95929490939091908b9060040161565c565b6020604051808303816000875af11580156143e8573d6000803e3d6000fd5b505050506040513d601f19601f8201168201806040525081019061440c919061520d565b949350505050565b600554835160408086015160608701516080880151602089015193517f1e62247600000000000000000000000000000000000000000000000000000000815260009673ffffffffffffffffffffffffffffffffffffffff1695631e622476956143c9958b95929490939091908b9060040161565c565b6000838152600a60209081526040808320815161014081018352815473ffffffffffffffffffffffffffffffffffffffff908116825260018301549482019490945260028201548184015260038201546060820152600480830154608083015260058084015460a08401819052600685015460c085015260079094015460ff808216151560e08601526101008083048216151590860152620100009091041615156101208401525493517efdd58e000000000000000000000000000000000000000000000000000000008152919594939093169262fdd58e926145909288920173ffffffffffffffffffffffffffffffffffffffff929092168252602082015260400190565b602060405180830381865afa1580156145ad573d6000803e3d6000fd5b505050506040513d601f19601f820116820180604052508101906145d1919061520d565b9050831561462c576000858152600a6020526040812060010180548392906145fa908490615644565b90915550506000858152600a60205260408120600201805460019290614621908490615644565b9091555061467a9050565b6000858152600a60205260408120600301805483929061464d908490615644565b90915550506000858152600a60205260408120600401805460019290614674908490615644565b90915550505b50506000838152600b6020908152604080832073ffffffffffffffffffffffffffffffffffffffff94909416808452938252808320805460017fffffffffffffffffffffffffffffffffffffffffffffffffffffffffffffff009182168117909255878552600c8452828520958552948352818420805490951695151595909517909355600e8152918120805493840181558152200155565b82805461471f90615159565b90600052602060002090601f0160209004810192826147415760008555614787565b82601f1061475a57805160ff1916838001178555614787565b82800160010185558215614787579182015b8281111561478757825182559160200191906001019061476c565b506147939291506147d1565b5090565b828054828255906000526020600020908101928215614787579160200282018281111561478757825182559160200191906001019061476c565b5b8082111561479357600081556001016147d2565b6000602082840312156147f857600080fd5b5035919050565b60006020828403121561481157600080fd5b81357fffffffff000000000000000000000000000000000000000000000000000000008116811461434c57600080fd5b801515811461484f57600080fd5b50565b6000806040838503121561486557600080fd5b82359150602083013561487781614841565b809150509250929050565b73ffffffffffffffffffffffffffffffffffffffff8116811461484f57600080fd5b6000602082840312156148b657600080fd5b813561434c81614882565b600080604083850312156148d457600080fd5b82356148df81614882565b9150602083013561487781614882565b60005b8381101561490a5781810151838201526020016148f2565b83811115614919576000848401525b50505050565b600081518084526149378160208601602086016148ef565b601f017fffffffffffffffffffffffffffffffffffffffffffffffffffffffffffffffe0169290920160200192915050565b6000610100825181855261497f8286018261491f565b91505060208301518482036020860152614999828261491f565b915050604083015160408501526060830151606085015273ffffffffffffffffffffffffffffffffffffffff608084015116608085015260a083015184820360a08601526149e7828261491f565b91505060c083015160c085015260e0830151614a0760e086018215159052565b509392505050565b8051825260208101516020830152604081015160408301526000606082015160a06060850152614a4260a085018261491f565b905060808301518482036080860152614a5b828261491f565b95945050505050565b6000610120808352614a788184018d614969565b90508281036020840152614a8c818c614a0f565b90508281036040840152614aa0818b614a0f565b73ffffffffffffffffffffffffffffffffffffffff9990991660608401525050608081019590955260a085019390935260c0840191909152151560e08301521515610100909101529392505050565b60008060408385031215614b0257600080fd5b82359150602083013561487781614882565b60008060008060808587031215614b2a57600080fd5b8435614b3581614882565b966020860135965060408601359560600135945092505050565b7f4e487b7100000000000000000000000000000000000000000000000000000000600052604160045260246000fd5b60405160e0810167ffffffffffffffff81118282101715614ba157614ba1614b4f565b60405290565b604051610100810167ffffffffffffffff81118282101715614ba157614ba1614b4f565b604051601f82017fffffffffffffffffffffffffffffffffffffffffffffffffffffffffffffffe016810167ffffffffffffffff81118282101715614c1257614c12614b4f565b604052919050565b600067ffffffffffffffff821115614c3457614c34614b4f565b50601f017fffffffffffffffffffffffffffffffffffffffffffffffffffffffffffffffe01660200190565b600082601f830112614c7157600080fd5b8135614c84614c7f82614c1a565b614bcb565b818152846020838601011115614c9957600080fd5b816020850160208301376000918101602001919091529392505050565b600082601f830112614cc757600080fd5b8135602067ffffffffffffffff821115614ce357614ce3614b4f565b8160051b614cf2828201614bcb565b9283528481018201928281019087851115614d0c57600080fd5b83870192505b84831015614d2b57823582529183019190830190614d12565b979650505050505050565b600060a08284031215614d4857600080fd5b60405160a0810167ffffffffffffffff8282108183111715614d6c57614d6c614b4f565b816040528293508435835260208501356020840152604085013560408401526060850135915080821115614d9f57600080fd5b614dab86838701614c60565b60608401526080850135915080821115614dc457600080fd5b50614dd185828601614c60565b6080830152505092915050565b8035614de981614882565b919050565b600080600060608486031215614e0357600080fd5b833567ffffffffffffffff80821115614e1b57600080fd5b9085019060e08288031215614e2f57600080fd5b614e37614b7e565b823582811115614e4657600080fd5b614e5289828601614c60565b825250602083013582811115614e6757600080fd5b614e7389828601614c60565b602083015250604083013582811115614e8b57600080fd5b614e9789828601614c60565b60408301525060608301356060820152608083013582811115614eb957600080fd5b614ec589828601614cb6565b60808301525060a083013582811115614edd57600080fd5b614ee989828601614d36565b60a08301525060c083013582811115614f0157600080fd5b614f0d89828601614d36565b60c0830152509450614f2491505060208501614dde565b9150604084013590509250925092565b60008083601f840112614f4657600080fd5b50813567ffffffffffffffff811115614f5e57600080fd5b6020830191508360208260051b8501011115614f7957600080fd5b9250929050565b60008083601f840112614f9257600080fd5b50813567ffffffffffffffff811115614faa57600080fd5b602083019150836020828501011115614f7957600080fd5b60008060008060008060008060a0898b031215614fde57600080fd5b8835614fe981614882565b97506020890135614ff981614882565b9650604089013567ffffffffffffffff8082111561501657600080fd5b6150228c838d01614f34565b909850965060608b013591508082111561503b57600080fd5b6150478c838d01614f34565b909650945060808b013591508082111561506057600080fd5b5061506d8b828c01614f80565b999c989b5096995094979396929594505050565b60008060008060008060a0878903121561509a57600080fd5b86356150a581614882565b955060208701356150b581614882565b94506040870135935060608701359250608087013567ffffffffffffffff8111156150df57600080fd5b6150eb89828a01614f80565b979a9699509497509295939492505050565b6000806000806080858703121561511357600080fd5b843561511e81614882565b9350602085013561512e81614882565b9250604085013561513e81614882565b9150606085013561514e81614882565b939692955090935050565b600181811c9082168061516d57607f821691505b602082108114156151a7577f4e487b7100000000000000000000000000000000000000000000000000000000600052602260045260246000fd5b50919050565b600081518084526020808501945080840160005b838110156151dd578151875295820195908201906001016151c1565b509495945050505050565b6040815260006151fb6040830185614969565b8281036020840152614a5b81856151ad565b60006020828403121561521f57600080fd5b5051919050565b7f4e487b7100000000000000000000000000000000000000000000000000000000600052603260045260246000fd5b7f4e487b7100000000000000000000000000000000000000000000000000000000600052601160045260246000fd5b60008282101561529657615296615255565b500390565b7f4e487b7100000000000000000000000000000000000000000000000000000000600052603160045260246000fd5b6000816152d9576152d9615255565b507fffffffffffffffffffffffffffffffffffffffffffffffffffffffffffffffff0190565b60007fffffffffffffffffffffffffffffffffffffffffffffffffffffffffffffffff82141561533157615331615255565b5060010190565b8051614de981614841565b60006020828403121561535557600080fd5b815161434c81614841565b604081526000615373604083018561491f565b8281036020840152614a5b818561491f565b86815260c06020820152600061539e60c083018861491f565b82810360408401526153b0818861491f565b905082810360608401526153c4818761491f565b73ffffffffffffffffffffffffffffffffffffffff959095166080840152505060a00152949350505050565b600082601f83011261540157600080fd5b815161540f614c7f82614c1a565b81815284602083860101111561542457600080fd5b61440c8260208301602087016148ef565b8051614de981614882565b60006020828403121561545257600080fd5b815167ffffffffffffffff8082111561546a57600080fd5b90830190610100828603121561547f57600080fd5b615487614ba7565b82518281111561549657600080fd5b6154a2878286016153f0565b8252506020830151828111156154b757600080fd5b6154c3878286016153f0565b60208301525060408301516040820152606083015160608201526154e960808401615435565b608082015260a08301518281111561550057600080fd5b61550c878286016153f0565b60a08301525060c083015160c082015261552860e08401615338565b60e082015295945050505050565b60006101208b83528060208401526155508184018c614969565b90508281036040840152615564818b614a0f565b90508281036060840152615578818a614a0f565b9050828103608084015261558c81896151ad565b91505073ffffffffffffffffffffffffffffffffffffffff861660a08301528460c08301528360e0830152826101008301529a9950505050505050505050565b6000817fffffffffffffffffffffffffffffffffffffffffffffffffffffffffffffffff048311821515161561560457615604615255565b500290565b60008261563f577f4e487b7100000000000000000000000000000000000000000000000000000000600052601260045260246000fd5b500490565b6000821982111561565757615657615255565b500190565b87815286602082015285604082015260e06060820152600061568160e083018761491f565b8281036080840152615693818761491f565b9150508360a083015273ffffffffffffffffffffffffffffffffffffffff831660c08301529897505050505050505056fea264697066735822122042cc2771d04e8e628333f046c595f5a233062f972f6ff1e097cc125792afbfe064736f6c634300080c0033",
  "immutableReferences": {},
  "source": "pragma solidity ^0.8.0;\n\nimport \"@openzeppelin/contracts/token/ERC1155/extensions/ERC1155Supply.sol\";\nimport \"@openzeppelin/contracts/utils/Counters.sol\";\nimport \"@openzeppelin/contracts/access/Ownable.sol\";\nimport \"@openzeppelin/contracts/token/ERC1155/IERC1155Receiver.sol\";\nimport \"./interface/IContribution.sol\";\nimport \"./Voting/BaseVotingContract.sol\";\nimport \"./interface/ITreasuryCore.sol\";\nimport \"./RecordsContract.sol\";\n\ncontract RecordsVotingContract is BaseVotingContract, IERC1155Receiver {\n    uint256 newVersionRequestId = 0;\n\n    // This mapping holds the data of new record version requests\n    mapping(uint256 => NewVersionRequest) public newVersionRequestMap;\n\n    // This mapping holds the the status of the claiming of the reward\n    // versionId => user address => status\n    mapping(uint256 => mapping(address => bool)) public rewardsClaimed;\n\n    // Address of the treasury core contracts\n    address public TREASURY_CORE_CONTRACT_ADDRESS;\n\n    ITreasuryCore public treasuryCoreContract;\n\n    // Address of the records contract\n    address public RECORDS_CONTRACT_ADDRESS;\n\n    RecordsContract public recordsContract;\n\n    /// @dev This is the token data for new version of record\n    /// @param totalSupply This is the total amount of tokens that will be created\n    /// @param oldContributorShare This is the amount of token that will be distributed among the previous record owners\n    /// @param userBalance Amount of tokens that user will keep to himself\n    /// @param symbol Symbol for the token\n    /// @param image Image for the token\n    struct NewVersionTokenStruct {\n        uint256 totalSupply;\n        uint256 oldContributorShare;\n        uint256 userBalance;\n        string symbol;\n        string image;\n    }\n\n    /// @dev This struct holds the data for new record version request\n    /// @param recordData Data for the new record\n    /// @param governanceToken New token data for governance token\n    /// @param communityToken New token data for community token\n    /// @param requester Owner of the request\n    /// @param oldVersionId Record id of old version\n    /// @param tokenId id of the token which will be used for voting\n    /// @param ballotId Id of the voting ballot\n    /// @param isPresent This is to check if the request with id is present or not\n    /// @param isAccepted The is the status of record that is accepted or not\n    struct NewVersionRequest {\n        RecordsContract.RecordStruct recordData;\n        NewVersionTokenStruct governanceToken;\n        NewVersionTokenStruct communityToken;\n        uint256[] contributionIds;\n        address requester;\n        uint256 oldVersionId;\n        uint256 tokenId;\n        uint256 ballotId;\n        bool isPresent;\n        bool isAccepted;\n    }\n\n    /// @dev This event is generated when New Record Version is created\n    /// @param requestId This is the id of the new record version request\n    /// @param recordData Data for the new record\n    /// @param governanceToken New token data for governance token\n    /// @param communityToken New token data for community token\n    /// @param requester Owner of the request\n    /// @param oldVersionId Record id of old version\n    /// @param tokenId id of the token which will be used for voting\n    /// @param ballotId Id of the voting ballot\n    event VersionRequest(\n        uint256 requestId,\n        RecordsContract.RecordStruct recordData,\n        NewVersionTokenStruct governanceToken,\n        NewVersionTokenStruct communityToken,\n        uint256[] contributionIds,\n        address requester,\n        uint256 oldVersionId,\n        uint256 tokenId,\n        uint256 ballotId\n    );\n\n    /// @dev This is when a vote is given by user.\n    /// @param voter Address of the voter\n    /// @param versionRequestId This is the id of the recordVersionRequest structure that is linked to this ballot\n    /// @param ballotId Id of the ballot where voting is stored\n    /// @param vote State of vote : true for yes and false for No\n    event NewVersionVoting(\n        address voter,\n        uint256 versionRequestId,\n        uint256 ballotId,\n        bool vote\n    );\n\n    /// @dev This is emitted when a voting ballot is created\n    /// @param requester Address of the requester\n    /// @param versionRequestId This is the id of the recordVersionRequest structure that is linked to this ballot\n    /// @param ballotId Id of the ballot where voting is stored\n    /// @param createdAt time when the ballot was created\n\n    event NewVersionVotingBallotCreated(\n        address requester,\n        uint256 versionRequestId,\n        uint256 ballotId,\n        uint256 createdAt\n    );\n\n    /// @dev this event is generated when result of a ballot is declared\n    /// @param versionReqId This is the id of newVersionRequest\n    /// @param tokenId This is the id of the token that is linked to this ballot\n    /// @param ballotId this is the ballot Id for which result is declared\n    /// @param result this is the status of the result\n    /// @param minTurnOut this status indicates if minimum amount of user showed up for voting\n    /// @param newRecordId this is the new record Id\n    event NewVersionRequestResult(\n        uint256 versionReqId,\n        uint256 tokenId,\n        uint256 ballotId,\n        bool result,\n        bool minTurnOut,\n        uint256 newRecordId\n    );\n\n    //------------------------------\n\n    ///@param tokenId it is the id of the token on which basis we distribute the reward\n    ///@param rewardTokenId it is the id of the new tokenId\n    struct NewVersionTokenDistributionStruct {\n        uint256 totalSupplyWei;\n        uint256 rewardAmountWei;\n        uint256 versionRequestId;\n        uint256 tokenId;\n        uint256 rewardTokenId;\n        uint256 rewardPerTokenWei;\n        uint256 snapshotId;\n    }\n\n    event NewVersionTokenDistribution(\n        uint256 versionRequestId,\n        uint256 totalSupplyWei,\n        uint256 rewardAmountWei,\n        uint256 tokenId,\n        uint256 rewardTokenId,\n        uint256 rewardPerTokenWei,\n        uint256 snapshotId\n    );\n\n    event NewTokenClaimed(\n        uint256 versionRequestId,\n        uint256 rewardTokenId,\n        uint256 rewardAmount,\n        address userAddress\n    );\n\n    // newVersionRequestId => tokenData\n    mapping(uint256 => NewVersionTokenDistributionStruct) newVersionGovTokenDistributionMapping;\n\n    mapping(uint256 => NewVersionTokenDistributionStruct) newVersionCommTokenDistributionMapping;\n\n    //------------------------------\n\n    constructor(address owner) BaseVotingContract(owner) {}\n\n    /// @dev This is to set the address of the contracts\n    /// @param recordsContractAddress New records contract address\n    /// @param treasuryContractAddress Takes the address of new treasury contract as parameter\n    /// @param treasuryCoreContractAddress Takes the address of new treasury core contract as parameter\n    /// @param newGovernanceContractAddress This is the address for the governance contract\n    function initialize(\n        address recordsContractAddress,\n        address treasuryContractAddress,\n        address treasuryCoreContractAddress,\n        address newGovernanceContractAddress\n    ) public initializer _ownerOnly {\n        BaseVotingContract.initialize(\n            treasuryContractAddress,\n            newGovernanceContractAddress\n        );\n        RECORDS_CONTRACT_ADDRESS = recordsContractAddress;\n        recordsContract = RecordsContract(RECORDS_CONTRACT_ADDRESS);\n        TREASURY_CORE_CONTRACT_ADDRESS = treasuryCoreContractAddress;\n        treasuryCoreContract = ITreasuryCore(TREASURY_CORE_CONTRACT_ADDRESS);\n    }\n\n    /// @dev This struct holds the required data for new version creation\n    /// @param name Name of the new record\n    /// @param image Cover photo of record\n    /// @param recordCategory string category of record\n    /// @param oldRecordId old record id\n    /// @param contributionIds list of contribution that are part of the new version\n    /// @param governanceToken this contains governance token details for new version of record\n    /// @param communityToken this contains community token details for new version of record\n    struct NewRecordVersionParams {\n        string name;\n        string image;\n        string recordCategory;\n        uint256 oldRecordId;\n        uint256[] contributionIds;\n        NewVersionTokenStruct governanceToken;\n        NewVersionTokenStruct communityToken;\n    }\n\n    /// @dev This function will create new record version from existing record\n    /// @param params required data for creation of new record version\n    /// @param platformWallet this is the UI providers wallet\n    /// @param platformFee this is the incentive amount for the UI maintainer\n    function createNewRecordVersion(\n        NewRecordVersionParams memory params,\n        address payable platformWallet,\n        uint256 platformFee\n    ) public payable returns (uint256) {\n        {\n            require(\n                params.governanceToken.totalSupply <= 1 * 10 ** 9 * 1 ether, //The token supply created shouldn't be more than1 billion\n                \"INVALID: GOV_SUPPLY_LIMIT_REACHED\"\n            );\n            require(\n                params.communityToken.totalSupply <= 1 * 10 ** 9 * 1 ether, //The token supply created shouldn't be more than1 billion\n                \"INVALID: COMM_SUPPLY_LIMIT_REACHED\"\n            );\n        }\n\n        require(msg.value >= platformFee, \"INV: INSUFFICIENT_PLATFORM_FEE\");\n        if (msg.value > 0) {\n            platformWallet.call{value: platformFee}(\"\");\n        }\n        {\n            recordsContract.validateNewRecordVersionParams(\n                params.oldRecordId,\n                params.governanceToken.totalSupply,\n                params.governanceToken.userBalance,\n                params.communityToken.totalSupply,\n                params.communityToken.userBalance\n            );\n        }\n\n        newVersionRequestId++;\n\n        uint256 votingTokenId = treasuryContract.getCommunityTokenId(\n            params.oldRecordId\n        );\n        uint256 ballotId = _createVoting(false, votingTokenId);\n        _createDeposit(msg.sender, msg.value - platformFee, ballotId);\n\n        treasuryContract.isSymbolAvailable(\n            params.governanceToken.symbol,\n            params.communityToken.symbol\n        );\n        treasuryContract.setSymbolsAsUsed(\n            params.governanceToken.symbol,\n            params.communityToken.symbol\n        );\n\n        RecordsContract.RecordStruct memory recordStruct = recordsContract\n            .createNewRecordVersion(\n                params.oldRecordId,\n                params.name,\n                params.image,\n                params.recordCategory,\n                msg.sender,\n                ballotId\n            );\n        NewVersionRequest memory newVersionRequest = NewVersionRequest({\n            recordData: recordStruct,\n            governanceToken: params.governanceToken,\n            communityToken: params.communityToken,\n            contributionIds: params.contributionIds,\n            requester: msg.sender,\n            oldVersionId: params.oldRecordId,\n            tokenId: votingTokenId,\n            ballotId: ballotId,\n            isPresent: true,\n            isAccepted: false\n        });\n\n        {\n            emit VersionRequest({\n                requestId: newVersionRequestId,\n                recordData: recordStruct,\n                governanceToken: params.governanceToken,\n                communityToken: params.communityToken,\n                contributionIds: params.contributionIds,\n                requester: msg.sender,\n                oldVersionId: params.oldRecordId,\n                tokenId: votingTokenId,\n                ballotId: ballotId\n            });\n\n            emit NewVersionVotingBallotCreated(\n                msg.sender,\n                newVersionRequestId,\n                ballotId,\n                block.timestamp\n            );\n        }\n\n        newVersionRequestMap[newVersionRequestId] = newVersionRequest;\n\n        return newVersionRequestId;\n    }\n\n    /// @dev This function is called by any user to cast vote\n    /// @param versionReqId this is the id of the new version request for which user is voting\n    /// @param vote this is the state of the vote, if true than it means the vote is in favour of the ballot\n    function castVote(uint256 versionReqId, bool vote) public {\n        require(\n            newVersionRequestMap[versionReqId].isPresent == true,\n            \"INVALID: INVALID_VERSION_REQ_ID\"\n        );\n\n        emit NewVersionVoting({\n            versionRequestId: versionReqId,\n            ballotId: newVersionRequestMap[versionReqId].ballotId,\n            voter: msg.sender,\n            vote: vote\n        });\n\n        super._castVote(versionReqId, vote);\n    }\n\n    /// @dev This function can be called from external source and also from within the contract\n    /// @param versionReqId this is the id of the new version request to which the winner is to be declared\n    function declareWinner(uint256 versionReqId) external {\n        NewVersionRequest memory req = newVersionRequestMap[versionReqId];\n\n        (bool result, bool minTurnOut) = _declareWinner(req.ballotId);\n        _releaseDeposit(req.ballotId);\n\n        uint256 recordId = 0;\n\n        if (result) {\n            recordId = recordsContract.createRecordFromData(\n                req.recordData,\n                req.contributionIds\n            );\n\n            // create new version and set the rewards for all the user\n            createToken(\n                req.governanceToken,\n                recordId,\n                treasuryContract.getCommunityTokenId(req.oldVersionId),\n                versionReqId,\n                true,\n                req.requester\n            );\n            createToken(\n                req.communityToken,\n                recordId,\n                treasuryContract.getCommunityTokenId(req.oldVersionId),\n                versionReqId,\n                false,\n                req.requester\n            );\n        }\n        newVersionRequestMap[versionReqId].isAccepted = result;\n\n        emit NewVersionRequestResult({\n            versionReqId: versionReqId,\n            tokenId: req.tokenId,\n            ballotId: req.ballotId,\n            result: result,\n            minTurnOut: minTurnOut,\n            newRecordId: recordId\n        });\n    }\n\n    /// @dev This function is for distributing of the tokens of new record version\n    /// @param versionReqId This is the version Request Id for which token needs to be claimed\n    function claimNewRecordTokens(uint256 versionReqId) public {\n        NewVersionRequest memory newVersionReq = newVersionRequestMap[\n            versionReqId\n        ];\n\n        require(\n            votingMap[newVersionReq.ballotId].isResultDeclared,\n            \"INVALID: BALLOT_STILL_OPEN\"\n        );\n\n        require(\n            rewardsClaimed[versionReqId][msg.sender] == false,\n            \"INVALID: CAN_ONLY_CLAIM_ONCE\"\n        );\n\n        require(newVersionReq.isAccepted == true, \"INVALID: VERSION_REJECTED\");\n\n        NewVersionTokenDistributionStruct\n            memory governanceToken = newVersionGovTokenDistributionMapping[\n                versionReqId\n            ];\n        NewVersionTokenDistributionStruct\n            memory communityToken = newVersionCommTokenDistributionMapping[\n                versionReqId\n            ];\n\n        uint256 govRewardAmount = calculateRewardTokens(governanceToken);\n        uint256 commRewardAmount = calculateRewardTokens(communityToken);\n\n        emit NewTokenClaimed({\n            versionRequestId: versionReqId,\n            rewardTokenId: governanceToken.rewardTokenId,\n            rewardAmount: govRewardAmount,\n            userAddress: msg.sender\n        });\n        emit NewTokenClaimed({\n            versionRequestId: versionReqId,\n            rewardTokenId: communityToken.rewardTokenId,\n            rewardAmount: commRewardAmount,\n            userAddress: msg.sender\n        });\n\n        alreadyVoted[newVersionReq.ballotId][msg.sender] = true;\n    }\n\n    /// @dev This function calculates the amount of token that a user will receive\n    /// @param tokenData This is the data of the token which is to be distributed\n    function calculateRewardTokens(\n        NewVersionTokenDistributionStruct memory tokenData\n    ) internal returns (uint256) {\n        uint256 tokenBal = treasuryCoreContract.balanceOfAt(\n            msg.sender,\n            tokenData.snapshotId,\n            tokenData.tokenId\n        );\n\n        if (tokenBal == 0) {\n            return 0;\n        }\n\n        uint256 rewardAmt = (tokenData.rewardPerTokenWei * tokenBal) / 1 ether;\n\n        if (rewardAmt > 0) {\n            treasuryCoreContract.safeTransferFrom(\n                address(this),\n                msg.sender,\n                tokenData.rewardTokenId,\n                rewardAmt,\n                \"INVALID: ROYALTY_ALREADY_CLAIMED\"\n            );\n        }\n\n        return rewardAmt;\n    }\n\n    function createToken(\n        NewVersionTokenStruct memory tokenData,\n        uint256 newRecordId,\n        uint256 decidingTokenId,\n        uint256 versionReqId,\n        bool isGovernanceToken,\n        address requester\n    ) internal {\n        uint256 tokenId = decidingTokenId;\n        uint256 totalSupply = treasuryContract.totalCirculatingSupply(tokenId);\n\n        uint256 newTokenId;\n        if (isGovernanceToken) {\n            newTokenId = createGovernanceToken(\n                tokenData,\n                newRecordId,\n                requester\n            );\n        } else {\n            newTokenId = createCommunityToken(\n                tokenData,\n                newRecordId,\n                requester\n            );\n        }\n\n        NewVersionTokenDistributionStruct\n            memory newVersionToken = NewVersionTokenDistributionStruct({\n                totalSupplyWei: totalSupply,\n                rewardAmountWei: tokenData.oldContributorShare,\n                versionRequestId: versionReqId,\n                tokenId: tokenId,\n                rewardTokenId: newTokenId,\n                rewardPerTokenWei: (tokenData.oldContributorShare * 1 ether) /\n                    totalSupply,\n                snapshotId: treasuryContract.snapshot()\n            });\n\n        /* require(\n            newVersionToken.rewardPerTokenWei > 0,\n            \"INSUFFICIENT_AMOUNT: TOKEN_SHARE_PER_USER_IS_LOW\"\n        ); */\n\n        emit NewVersionTokenDistribution({\n            versionRequestId: versionReqId,\n            totalSupplyWei: newVersionToken.totalSupplyWei,\n            rewardAmountWei: newVersionToken.rewardAmountWei,\n            tokenId: newVersionToken.tokenId,\n            rewardTokenId: newTokenId,\n            rewardPerTokenWei: newVersionToken.rewardPerTokenWei,\n            snapshotId: newVersionToken.snapshotId\n        });\n\n        if (isGovernanceToken) {\n            newVersionGovTokenDistributionMapping[\n                versionReqId\n            ] = newVersionToken;\n        } else {\n            newVersionCommTokenDistributionMapping[\n                versionReqId\n            ] = newVersionToken;\n        }\n    }\n\n    function createGovernanceToken(\n        NewVersionTokenStruct memory tokenData,\n        uint256 recordId,\n        address owner\n    ) internal returns (uint256) {\n        return\n            treasuryContract.createNewGovernanceTokenNewRecordVersion(\n                recordId,\n                tokenData.totalSupply,\n                tokenData.userBalance,\n                tokenData.symbol,\n                tokenData.image,\n                tokenData.oldContributorShare,\n                owner\n            );\n    }\n\n    function createCommunityToken(\n        NewVersionTokenStruct memory tokenData,\n        uint256 recordId,\n        address owner\n    ) internal returns (uint256) {\n        return\n            treasuryContract.createNewCommunityTokenNewRecordVersion(\n                recordId,\n                tokenData.totalSupply,\n                tokenData.userBalance,\n                tokenData.symbol,\n                tokenData.image,\n                tokenData.oldContributorShare,\n                owner\n            );\n    }\n\n    function onERC1155Received(\n        address operator,\n        address from,\n        uint256 id,\n        uint256 value,\n        bytes calldata data\n    ) external virtual override returns (bytes4) {\n        return\n            bytes4(\n                keccak256(\n                    \"onERC1155Received(address,address,uint256,uint256,bytes)\"\n                )\n            );\n    }\n\n    function onERC1155BatchReceived(\n        address operator,\n        address from,\n        uint256[] calldata ids,\n        uint256[] calldata values,\n        bytes calldata data\n    ) external virtual override returns (bytes4) {\n        return\n            bytes4(\n                keccak256(\n                    \"onERC1155BatchReceived(address,address,uint256[],uint256[],bytes)\"\n                )\n            );\n    }\n\n    function supportsInterface(\n        bytes4 interfaceId\n    ) public view virtual override returns (bool) {}\n}\n",
  "sourcePath": "/Users/a1/Desktop/Office/projects/CrowdRecords/Contracts/contracts/RecordsVotingContract.sol",
  "compiler": {
    "name": "solc",
    "version": "0.8.12+commit.f00d7308.Emscripten.clang"
  },
  "schemaVersion": "3.4.6",
  "updatedAt": "2023-07-12T07:16:52.898Z",
  "networkType": "ethereum",
  "devdoc": {
    "events": {
      "NewVersionRequestResult(uint256,uint256,uint256,bool,bool,uint256)": {
        "details": "this event is generated when result of a ballot is declared",
        "params": {
          "ballotId": "this is the ballot Id for which result is declared",
          "minTurnOut": "this status indicates if minimum amount of user showed up for voting",
          "newRecordId": "this is the new record Id",
          "result": "this is the status of the result",
          "tokenId": "This is the id of the token that is linked to this ballot",
          "versionReqId": "This is the id of newVersionRequest"
        }
      },
      "NewVersionVoting(address,uint256,uint256,bool)": {
        "details": "This is when a vote is given by user.",
        "params": {
          "ballotId": "Id of the ballot where voting is stored",
          "versionRequestId": "This is the id of the recordVersionRequest structure that is linked to this ballot",
          "vote": "State of vote : true for yes and false for No",
          "voter": "Address of the voter"
        }
      },
      "NewVersionVotingBallotCreated(address,uint256,uint256,uint256)": {
        "details": "This is emitted when a voting ballot is created",
        "params": {
          "ballotId": "Id of the ballot where voting is stored",
          "createdAt": "time when the ballot was created",
          "requester": "Address of the requester",
          "versionRequestId": "This is the id of the recordVersionRequest structure that is linked to this ballot"
        }
      },
      "VersionRequest(uint256,(string,string,uint256,uint256,address,string,uint256,bool),(uint256,uint256,uint256,string,string),(uint256,uint256,uint256,string,string),uint256[],address,uint256,uint256,uint256)": {
        "details": "This event is generated when New Record Version is created",
        "params": {
          "ballotId": "Id of the voting ballot",
          "communityToken": "New token data for community token",
          "governanceToken": "New token data for governance token",
          "oldVersionId": "Record id of old version",
          "recordData": "Data for the new record",
          "requestId": "This is the id of the new record version request",
          "requester": "Owner of the request",
          "tokenId": "id of the token which will be used for voting"
        }
      }
    },
    "kind": "dev",
    "methods": {
      "_handleUserTokenTransfers(address,uint256,uint256,uint256)": {
        "details": "This function will be called when either user is transferring the tokens to other account, or is receiving tokens from other tokens.",
        "params": {
          "newBalance": "this is the new balance of the user that is after the transfer",
          "previousBalance": "this is the old balance of the user",
          "user": "address of the user whose balance is being changed"
        }
      },
      "castVote(uint256,bool)": {
        "details": "This function is called by any user to cast vote",
        "params": {
          "versionReqId": "this is the id of the new version request for which user is voting",
          "vote": "this is the state of the vote, if true than it means the vote is in favour of the ballot"
        }
      },
      "claimNewRecordTokens(uint256)": {
        "details": "This function is for distributing of the tokens of new record version",
        "params": {
          "versionReqId": "This is the version Request Id for which token needs to be claimed"
        }
      },
      "createNewRecordVersion((string,string,string,uint256,uint256[],(uint256,uint256,uint256,string,string),(uint256,uint256,uint256,string,string)),address,uint256)": {
        "details": "This function will create new record version from existing record",
        "params": {
          "params": "required data for creation of new record version",
          "platformFee": "this is the incentive amount for the UI maintainer",
          "platformWallet": "this is the UI providers wallet"
        }
      },
      "declareWinner(uint256)": {
        "details": "This function can be called from external source and also from within the contract",
        "params": {
          "versionReqId": "this is the id of the new version request to which the winner is to be declared"
        }
      },
      "initialize(address,address)": {
        "details": "This function sets the treasury Contract address and the governance address",
        "params": {
          "newGovernanceContractAddress": "This is the address for the governance contract",
          "newTreasuryContractAddress": "This is the new address of treasury contract"
        }
      },
      "initialize(address,address,address,address)": {
        "details": "This is to set the address of the contracts",
        "params": {
          "newGovernanceContractAddress": "This is the address for the governance contract",
          "recordsContractAddress": "New records contract address",
          "treasuryContractAddress": "Takes the address of new treasury contract as parameter",
          "treasuryCoreContractAddress": "Takes the address of new treasury core contract as parameter"
        }
      },
      "onERC1155BatchReceived(address,address,uint256[],uint256[],bytes)": {
        "details": "Handles the receipt of a multiple ERC1155 token types. This function is called at the end of a `safeBatchTransferFrom` after the balances have been updated. NOTE: To accept the transfer(s), this must return `bytes4(keccak256(\"onERC1155BatchReceived(address,address,uint256[],uint256[],bytes)\"))` (i.e. 0xbc197c81, or its own function selector).",
        "params": {
          "data": "Additional data with no specified format",
          "from": "The address which previously owned the token",
          "ids": "An array containing ids of each token being transferred (order and length must match values array)",
          "operator": "The address which initiated the batch transfer (i.e. msg.sender)",
          "values": "An array containing amounts of each token being transferred (order and length must match ids array)"
        },
        "returns": {
          "_0": "`bytes4(keccak256(\"onERC1155BatchReceived(address,address,uint256[],uint256[],bytes)\"))` if transfer is allowed"
        }
      },
      "onERC1155Received(address,address,uint256,uint256,bytes)": {
        "details": "Handles the receipt of a single ERC1155 token type. This function is called at the end of a `safeTransferFrom` after the balance has been updated. NOTE: To accept the transfer, this must return `bytes4(keccak256(\"onERC1155Received(address,address,uint256,uint256,bytes)\"))` (i.e. 0xf23a6e61, or its own function selector).",
        "params": {
          "data": "Additional data with no specified format",
          "from": "The address which previously owned the token",
          "id": "The ID of the token being transferred",
          "operator": "The address which initiated the transfer (i.e. msg.sender)",
          "value": "The amount of tokens being transferred"
        },
        "returns": {
          "_0": "`bytes4(keccak256(\"onERC1155Received(address,address,uint256,uint256,bytes)\"))` if transfer is allowed"
        }
      },
      "setDepositAmount(uint256)": {
        "details": "This function sets the VOTING_DEPOSIT percentage",
        "params": {
          "depositAmount": "This is the new deposit amount needed for creating ballot"
        }
      },
      "setMinTurnOut(uint256)": {
        "details": "This function sets the MIN_TURN_OUT percentage",
        "params": {
          "minTurnOut": "This is the new turnout percentage value"
        }
      },
      "setOwnerAddress(address)": {
        "details": "This function sets the owner address",
        "params": {
          "ownerAddress": "This is the address of the owner"
        }
      },
      "setVotingPeriod(uint256)": {
        "details": "This function sets the VOTING_BLOCK_PERIOD percentage",
        "params": {
          "votingPeriod": "This is the voting period"
        }
      },
      "supportsInterface(bytes4)": {
        "details": "Returns true if this contract implements the interface defined by `interfaceId`. See the corresponding https://eips.ethereum.org/EIPS/eip-165#how-interfaces-are-identified[EIP section] to learn more about how these ids are created. This function call must use less than 30 000 gas."
      }
    },
    "version": 1
  },
  "userdoc": {
    "kind": "user",
    "methods": {},
    "version": 1
  }
}